{
  "_format": "hh3-artifact-1",
  "contractName": "BlindAuction",
  "sourceName": "contracts/BlindAuction.sol",
  "abi": [
    {
      "inputs": [
        {
          "internalType": "address",
          "name": "_nftContractAddress",
          "type": "address"
        },
        {
          "internalType": "address",
          "name": "_confidentialFungibleTokenAddress",
          "type": "address"
        },
        {
          "internalType": "uint256",
          "name": "_tokenId",
          "type": "uint256"
        },
        {
          "internalType": "uint256",
          "name": "_auctionStartTime",
          "type": "uint256"
        },
        {
          "internalType": "uint256",
          "name": "_auctionEndTime",
          "type": "uint256"
        }
      ],
      "stateMutability": "nonpayable",
      "type": "constructor"
    },
    {
      "inputs": [],
      "name": "HandlesAlreadySavedForRequestID",
      "type": "error"
    },
    {
      "inputs": [],
      "name": "InvalidKMSSignatures",
      "type": "error"
    },
    {
      "inputs": [],
      "name": "NoHandleFoundForRequestID",
      "type": "error"
    },
    {
      "inputs": [],
      "name": "ReentrancyGuardReentrantCall",
      "type": "error"
    },
    {
      "inputs": [
        {
          "internalType": "uint256",
          "name": "time",
          "type": "uint256"
        }
      ],
      "name": "TooEarlyError",
      "type": "error"
    },
    {
      "inputs": [
        {
          "internalType": "uint256",
          "name": "time",
          "type": "uint256"
        }
      ],
      "name": "TooLateError",
      "type": "error"
    },
    {
      "inputs": [],
      "name": "UnsupportedHandleType",
      "type": "error"
    },
    {
      "inputs": [],
      "name": "WinnerNotYetRevealed",
      "type": "error"
    },
    {
      "anonymous": false,
      "inputs": [
        {
          "indexed": true,
          "internalType": "uint256",
          "name": "requestID",
          "type": "uint256"
        }
      ],
      "name": "DecryptionFulfilled",
      "type": "event"
    },
    {
      "inputs": [],
      "name": "auctionEndTime",
      "outputs": [
        {
          "internalType": "uint256",
          "name": "",
          "type": "uint256"
        }
      ],
      "stateMutability": "view",
      "type": "function"
    },
    {
      "inputs": [],
      "name": "auctionStartTime",
      "outputs": [
        {
          "internalType": "uint256",
          "name": "",
          "type": "uint256"
        }
      ],
      "stateMutability": "view",
      "type": "function"
    },
    {
      "inputs": [],
      "name": "beneficiary",
      "outputs": [
        {
          "internalType": "address",
          "name": "",
          "type": "address"
        }
      ],
      "stateMutability": "view",
      "type": "function"
    },
    {
      "inputs": [
        {
          "internalType": "externalEuint64",
          "name": "encryptedAmount",
          "type": "bytes32"
        },
        {
          "internalType": "bytes",
          "name": "inputProof",
          "type": "bytes"
        }
      ],
      "name": "bid",
      "outputs": [],
      "stateMutability": "nonpayable",
      "type": "function"
    },
    {
      "inputs": [],
      "name": "confidentialFungibleToken",
      "outputs": [
        {
          "internalType": "contract ConfidentialFungibleToken",
          "name": "",
          "type": "address"
        }
      ],
      "stateMutability": "view",
      "type": "function"
    },
    {
      "inputs": [],
      "name": "decryptWinningAddress",
      "outputs": [],
      "stateMutability": "nonpayable",
      "type": "function"
    },
    {
      "inputs": [
        {
          "internalType": "address",
          "name": "account",
          "type": "address"
        }
      ],
      "name": "getEncryptedBid",
      "outputs": [
        {
          "internalType": "euint64",
          "name": "",
          "type": "bytes32"
        }
      ],
      "stateMutability": "view",
      "type": "function"
    },
    {
      "inputs": [],
      "name": "getWinnerAddress",
      "outputs": [
        {
          "internalType": "address",
          "name": "",
          "type": "address"
        }
      ],
      "stateMutability": "view",
      "type": "function"
    },
    {
      "inputs": [],
      "name": "isNftClaimed",
      "outputs": [
        {
          "internalType": "bool",
          "name": "",
          "type": "bool"
        }
      ],
      "stateMutability": "view",
      "type": "function"
    },
    {
      "inputs": [],
      "name": "nftContract",
      "outputs": [
        {
          "internalType": "contract IERC721",
          "name": "",
          "type": "address"
        }
      ],
      "stateMutability": "view",
      "type": "function"
    },
    {
      "inputs": [
        {
          "internalType": "address",
          "name": "",
          "type": "address"
        },
        {
          "internalType": "address",
          "name": "",
          "type": "address"
        },
        {
          "internalType": "uint256",
          "name": "",
          "type": "uint256"
        },
        {
          "internalType": "bytes",
          "name": "",
          "type": "bytes"
        }
      ],
      "name": "onERC721Received",
      "outputs": [
        {
          "internalType": "bytes4",
          "name": "",
          "type": "bytes4"
        }
      ],
      "stateMutability": "pure",
      "type": "function"
    },
    {
      "inputs": [
        {
          "internalType": "uint256",
          "name": "requestId",
          "type": "uint256"
        },
        {
          "internalType": "bytes",
          "name": "cleartexts",
          "type": "bytes"
        },
        {
          "internalType": "bytes[]",
          "name": "signatures",
          "type": "bytes[]"
        }
      ],
      "name": "resolveAuctionCallback",
      "outputs": [],
      "stateMutability": "nonpayable",
      "type": "function"
    },
    {
      "inputs": [],
      "name": "tokenId",
      "outputs": [
        {
          "internalType": "uint256",
          "name": "",
          "type": "uint256"
        }
      ],
      "stateMutability": "view",
      "type": "function"
    },
    {
      "inputs": [],
      "name": "winnerAddress",
      "outputs": [
        {
          "internalType": "address",
          "name": "",
          "type": "address"
        }
      ],
      "stateMutability": "view",
      "type": "function"
    },
    {
      "inputs": [],
      "name": "winnerClaimPrize",
      "outputs": [],
      "stateMutability": "nonpayable",
      "type": "function"
    },
    {
      "inputs": [
        {
          "internalType": "address",
          "name": "bidder",
          "type": "address"
        }
      ],
      "name": "withdraw",
      "outputs": [],
      "stateMutability": "nonpayable",
      "type": "function"
    }
  ],
  "bytecode": "0x608060405234801561000f575f5ffd5b506040516135b73803806135b78339818101604052810190610031919061051e565b61004d61004261019160201b60201c565b61021760201b60201c565b61006961005e61022960201b60201c565b61023060201b60201c565b60015f819055503360015f6101000a81548173ffffffffffffffffffffffffffffffffffffffff021916908373ffffffffffffffffffffffffffffffffffffffff1602179055508360025f6101000a81548173ffffffffffffffffffffffffffffffffffffffff021916908373ffffffffffffffffffffffffffffffffffffffff1602179055508460035f6101000a81548173ffffffffffffffffffffffffffffffffffffffff021916908373ffffffffffffffffffffffffffffffffffffffff16021790555082600481905550808210610179576040517f08c379a0000000000000000000000000000000000000000000000000000000008152600401610170906105ef565b60405180910390fd5b8160058190555080600681905550505050505061060d565b610199610411565b60405180608001604052805f73ffffffffffffffffffffffffffffffffffffffff1681526020015f73ffffffffffffffffffffffffffffffffffffffff1681526020015f73ffffffffffffffffffffffffffffffffffffffff1681526020015f73ffffffffffffffffffffffffffffffffffffffff16815250905090565b6102268161024260201b60201c565b50565b5f5f905090565b61023f8161036d60201b60201c565b50565b5f6102516103c360201b60201c565b9050815f0151815f015f6101000a81548173ffffffffffffffffffffffffffffffffffffffff021916908373ffffffffffffffffffffffffffffffffffffffff1602179055508160200151816001015f6101000a81548173ffffffffffffffffffffffffffffffffffffffff021916908373ffffffffffffffffffffffffffffffffffffffff1602179055508160400151816002015f6101000a81548173ffffffffffffffffffffffffffffffffffffffff021916908373ffffffffffffffffffffffffffffffffffffffff1602179055508160600151816003015f6101000a81548173ffffffffffffffffffffffffffffffffffffffff021916908373ffffffffffffffffffffffffffffffffffffffff1602179055505050565b5f61037c6103ea60201b60201c565b905081815f015f6101000a81548173ffffffffffffffffffffffffffffffffffffffff021916908373ffffffffffffffffffffffffffffffffffffffff1602179055505050565b5f7fed8d60e34876f751cc8b014c560745351147d9de11b9347c854e881b128ea600905090565b5f7f5ea69329017273582817d320489fbd94f775580e90c092699ca6f3d12fdf7d00905090565b60405180608001604052805f73ffffffffffffffffffffffffffffffffffffffff1681526020015f73ffffffffffffffffffffffffffffffffffffffff1681526020015f73ffffffffffffffffffffffffffffffffffffffff1681526020015f73ffffffffffffffffffffffffffffffffffffffff1681525090565b5f5ffd5b5f73ffffffffffffffffffffffffffffffffffffffff82169050919050565b5f6104ba82610491565b9050919050565b6104ca816104b0565b81146104d4575f5ffd5b50565b5f815190506104e5816104c1565b92915050565b5f819050919050565b6104fd816104eb565b8114610507575f5ffd5b50565b5f81519050610518816104f4565b92915050565b5f5f5f5f5f60a086880312156105375761053661048d565b5b5f610544888289016104d7565b9550506020610555888289016104d7565b94505060406105668882890161050a565b93505060606105778882890161050a565b92505060806105888882890161050a565b9150509295509295909350565b5f82825260208201905092915050565b7f494e56414c49445f54494d4500000000000000000000000000000000000000005f82015250565b5f6105d9600c83610595565b91506105e4826105a5565b602082019050919050565b5f6020820190508181035f830152610606816105cd565b9050919050565b612f9d8061061a5f395ff3fe608060405234801561000f575f5ffd5b50600436106100fe575f3560e01c806351cff8d911610095578063c7f21f3911610064578063c7f21f3914610260578063d56d229d1461027e578063eb54f9ec1461029c578063ed7a4e0b146102ba576100fe565b806351cff8d9146101ec57806358db3154146102085780637f1d96d114610212578063b2a4d9ef14610230576100fe565b80632cfb72e5116100d15780632cfb72e51461017857806338263e821461019457806338af3eed146101b05780634b449cba146101ce576100fe565b806310a37c2614610102578063150b7a021461012057806317d70f7c146101505780632060ef0d1461016e575b5f5ffd5b61010a6102d8565b6040516101179190611ff0565b60405180910390f35b61013a600480360381019061013591906120d8565b61038f565b6040516101479190612196565b60405180910390f35b6101586103a3565b60405161016591906121be565b60405180910390f35b6101766103a9565b005b610192600480360381019061018d91906123ed565b610483565b005b6101ae60048036038101906101a991906124a8565b61052e565b005b6101b86109f9565b6040516101c59190611ff0565b60405180910390f35b6101d6610a1e565b6040516101e391906121be565b60405180910390f35b61020660048036038101906102019190612505565b610a24565b005b610210610caf565b005b61021a611085565b604051610227919061258b565b60405180910390f35b61024a60048036038101906102459190612505565b6110aa565b60405161025791906125c4565b60405180910390f35b6102686110f0565b60405161027591906125f7565b60405180910390f35b610286611103565b6040516102939190612630565b60405180910390f35b6102a4611128565b6040516102b191906121be565b60405180910390f35b6102c261112e565b6040516102cf9190611ff0565b60405180910390f35b5f5f73ffffffffffffffffffffffffffffffffffffffff1660095f9054906101000a900473ffffffffffffffffffffffffffffffffffffffff1673ffffffffffffffffffffffffffffffffffffffff1603610368576040517f08c379a000000000000000000000000000000000000000000000000000000000815260040161035f906126c9565b60405180910390fd5b60095f9054906101000a900473ffffffffffffffffffffffffffffffffffffffff16905090565b5f63150b7a0260e01b905095945050505050565b60045481565b6006544210156103f2576006546040517f5c269db50000000000000000000000000000000000000000000000000000000081526004016103e991906121be565b60405180910390fd5b5f600167ffffffffffffffff81111561040e5761040d6121eb565b5b60405190808252806020026020018201604052801561043c5781602001602082028036833780820191505090505b50905061044a600854611153565b815f8151811061045d5761045c6126e7565b5b60200260200101818152505061047a81632cfb72e560e01b61115c565b600a8190555050565b600a5483146104c7576040517f08c379a00000000000000000000000000000000000000000000000000000000081526004016104be9061275e565b60405180910390fd5b6104d18382611170565b5f828060200190518101906104e691906127b7565b90508060095f6101000a81548173ffffffffffffffffffffffffffffffffffffffff021916908373ffffffffffffffffffffffffffffffffffffffff16021790555050505050565b600554421015610577576005546040517f5c269db500000000000000000000000000000000000000000000000000000000815260040161056e91906121be565b60405180910390fd5b60065442106105bf576006546040517f4e7cb37e0000000000000000000000000000000000000000000000000000000081526004016105b691906121be565b60405180910390fd5b6105c76111f3565b5f6106158484848080601f0160208091040260200160405190810160405280939291908181526020018383808284375f81840152601f19601f82011690508083019250505050505050611237565b90505f60025f9054906101000a900473ffffffffffffffffffffffffffffffffffffffff1673ffffffffffffffffffffffffffffffffffffffff1663344ff101306040518263ffffffff1660e01b81526004016106729190611ff0565b602060405180830381865afa15801561068d573d5f5f3e3d5ffd5b505050506040513d601f19601f820116820180604052508101906106b1919061280c565b90506106de8260025f9054906101000a900473ffffffffffffffffffffffffffffffffffffffff1661124c565b5060025f9054906101000a900473ffffffffffffffffffffffffffffffffffffffff1673ffffffffffffffffffffffffffffffffffffffff1663eb3155b53330856040518463ffffffff1660e01b815260040161073d93929190612837565b6020604051808303815f875af1158015610759573d5f5f3e3d5ffd5b505050506040513d601f19601f8201168201806040525081019061077d919061280c565b505f60025f9054906101000a900473ffffffffffffffffffffffffffffffffffffffff1673ffffffffffffffffffffffffffffffffffffffff1663344ff101306040518263ffffffff1660e01b81526004016107d99190611ff0565b602060405180830381865afa1580156107f4573d5f5f3e3d5ffd5b505050506040513d601f19601f82011682018060405250810190610818919061280c565b90505f6108258284611260565b90505f600b5f3373ffffffffffffffffffffffffffffffffffffffff1673ffffffffffffffffffffffffffffffffffffffff1681526020019081526020015f20549050610871816112a6565b156108cb575f61088182846112b4565b905080600b5f3373ffffffffffffffffffffffffffffffffffffffff1673ffffffffffffffffffffffffffffffffffffffff1681526020019081526020015f20819055505061090e565b81600b5f3373ffffffffffffffffffffffffffffffffffffffff1673ffffffffffffffffffffffffffffffffffffffff1681526020019081526020015f20819055505b5f600b5f3373ffffffffffffffffffffffffffffffffffffffff1673ffffffffffffffffffffffffffffffffffffffff1681526020019081526020015f20549050610958816112fa565b50610963813361130d565b5061096f6007546112a6565b156109b7575f61098160075483611321565b90506109908183600754611367565b6007819055506109ab816109a33361137c565b6008546113a5565b600881905550506109ce565b806007819055506109c73361137c565b6008819055505b6109d96007546112fa565b506109e56008546113ba565b505050505050506109f46113cd565b505050565b60015f9054906101000a900473ffffffffffffffffffffffffffffffffffffffff1681565b60065481565b5f73ffffffffffffffffffffffffffffffffffffffff1660095f9054906101000a900473ffffffffffffffffffffffffffffffffffffffff1673ffffffffffffffffffffffffffffffffffffffff1603610aaa576040517f6541e85c00000000000000000000000000000000000000000000000000000000815260040160405180910390fd5b60095f9054906101000a900473ffffffffffffffffffffffffffffffffffffffff1673ffffffffffffffffffffffffffffffffffffffff168173ffffffffffffffffffffffffffffffffffffffff1603610b3d576006546040517f4e7cb37e000000000000000000000000000000000000000000000000000000008152600401610b3491906121be565b60405180910390fd5b5f600b5f8373ffffffffffffffffffffffffffffffffffffffff1673ffffffffffffffffffffffffffffffffffffffff1681526020019081526020015f20549050610ba98160025f9054906101000a900473ffffffffffffffffffffffffffffffffffffffff1661124c565b505f610bb45f6113d6565b905080600b5f8573ffffffffffffffffffffffffffffffffffffffff1673ffffffffffffffffffffffffffffffffffffffff1681526020019081526020015f2081905550610c01816112fa565b50610c0c818461130d565b5060025f9054906101000a900473ffffffffffffffffffffffffffffffffffffffff1673ffffffffffffffffffffffffffffffffffffffff16635bebed7e84846040518363ffffffff1660e01b8152600401610c6992919061286c565b6020604051808303815f875af1158015610c85573d5f5f3e3d5ffd5b505050506040513d601f19601f82011682018060405250810190610ca9919061280c565b50505050565b5f73ffffffffffffffffffffffffffffffffffffffff1660095f9054906101000a900473ffffffffffffffffffffffffffffffffffffffff1673ffffffffffffffffffffffffffffffffffffffff1603610d35576040517f6541e85c00000000000000000000000000000000000000000000000000000000815260040160405180910390fd5b3373ffffffffffffffffffffffffffffffffffffffff1660095f9054906101000a900473ffffffffffffffffffffffffffffffffffffffff1673ffffffffffffffffffffffffffffffffffffffff1614610dc4576040517f08c379a0000000000000000000000000000000000000000000000000000000008152600401610dbb906128dd565b60405180910390fd5b600960149054906101000a900460ff1615610e14576040517f08c379a0000000000000000000000000000000000000000000000000000000008152600401610e0b90612945565b60405180910390fd5b6001600960146101000a81548160ff021916908315150217905550610e385f6113d6565b600b5f3373ffffffffffffffffffffffffffffffffffffffff1673ffffffffffffffffffffffffffffffffffffffff1681526020019081526020015f2081905550610ebf600b5f3373ffffffffffffffffffffffffffffffffffffffff1673ffffffffffffffffffffffffffffffffffffffff1681526020019081526020015f20546112fa565b50610f07600b5f3373ffffffffffffffffffffffffffffffffffffffff1673ffffffffffffffffffffffffffffffffffffffff1681526020019081526020015f20543361130d565b50610f3560075460025f9054906101000a900473ffffffffffffffffffffffffffffffffffffffff1661124c565b5060025f9054906101000a900473ffffffffffffffffffffffffffffffffffffffff1673ffffffffffffffffffffffffffffffffffffffff16635bebed7e60015f9054906101000a900473ffffffffffffffffffffffffffffffffffffffff166007546040518363ffffffff1660e01b8152600401610fb592919061286c565b6020604051808303815f875af1158015610fd1573d5f5f3e3d5ffd5b505050506040513d601f19601f82011682018060405250810190610ff5919061280c565b5060035f9054906101000a900473ffffffffffffffffffffffffffffffffffffffff1673ffffffffffffffffffffffffffffffffffffffff166342842e0e30336004546040518463ffffffff1660e01b815260040161105693929190612963565b5f604051808303815f87803b15801561106d575f5ffd5b505af115801561107f573d5f5f3e3d5ffd5b50505050565b60025f9054906101000a900473ffffffffffffffffffffffffffffffffffffffff1681565b5f600b5f8373ffffffffffffffffffffffffffffffffffffffff1673ffffffffffffffffffffffffffffffffffffffff1681526020019081526020015f20549050919050565b600960149054906101000a900460ff1681565b60035f9054906101000a900473ffffffffffffffffffffffffffffffffffffffff1681565b60055481565b60095f9054906101000a900473ffffffffffffffffffffffffffffffffffffffff1681565b5f819050919050565b5f61116883835f6113f3565b905092915050565b5f61117a83611553565b90505f6111878284611617565b9050806111c0576040517fcf6c44e900000000000000000000000000000000000000000000000000000000815260040160405180910390fd5b837f1af0453083661051f6e56e5c070792320652e612154bf9af8637bb1e7655b99d60405160405180910390a250505050565b60025f540361122e576040517f3ee5aeb500000000000000000000000000000000000000000000000000000000815260040160405180910390fd5b60025f81905550565b5f61124483836005611737565b905092915050565b5f6112578383611879565b82905092915050565b5f61126a836112a6565b61127a576112775f6113d6565b92505b611283826112a6565b611293576112905f6113d6565b91505b61129e83835f611913565b905092915050565b5f5f5f1b8214159050919050565b5f6112be836112a6565b6112ce576112cb5f6113d6565b92505b6112d7826112a6565b6112e7576112e45f6113d6565b91505b6112f283835f6119e4565b905092915050565b5f6113058230611ab5565b819050919050565b5f6113188383611ab5565b82905092915050565b5f61132b836112a6565b61133b576113385f6113d6565b92505b611344826112a6565b611354576113515f6113d6565b91505b61135f83835f611b4f565b905092915050565b5f611373848484611c20565b90509392505050565b5f61139e8273ffffffffffffffffffffffffffffffffffffffff166007611cd6565b9050919050565b5f6113b1848484611c20565b90509392505050565b5f6113c58230611ab5565b819050919050565b60015f81905550565b5f6113ec8267ffffffffffffffff166005611cd6565b9050919050565b5f5f6113fd611d89565b9050806001015491505f61140f611db0565b9050805f015f9054906101000a900473ffffffffffffffffffffffffffffffffffffffff1673ffffffffffffffffffffffffffffffffffffffff1663fadd2246876040518263ffffffff1660e01b815260040161146c9190612a4f565b5f604051808303815f87803b158015611483575f5ffd5b505af1158015611495573d5f5f3e3d5ffd5b50505050815f015f9054906101000a900473ffffffffffffffffffffffffffffffffffffffff1673ffffffffffffffffffffffffffffffffffffffff16633263b83b858589896040518563ffffffff1660e01b81526004016114f993929190612a6f565b5f604051808303818588803b158015611510575f5ffd5b505af1158015611522573d5f5f3e3d5ffd5b50505050506115318387611dd7565b816001015f81548092919061154590612ad8565b919050555050509392505050565b60605f61155e611d89565b90505f816002015f8581526020019081526020015f2080549050036115af576040517fd66ca67500000000000000000000000000000000000000000000000000000000815260040160405180910390fd5b806002015f8481526020019081526020015f2080548060200260200160405190810160405280929190818152602001828054801561160a57602002820191905f5260205f20905b8154815260200190600101908083116115f6575b5050505050915050919050565b5f5f602490505f61162785611e5e565b90505f8167ffffffffffffffff811115611644576116436121eb565b5b6040519080825280601f01601f1916602001820160405280156116765781602001600182028036833780820191505090505b509050818360208301375f611689611db0565b9050806002015f9054906101000a900473ffffffffffffffffffffffffffffffffffffffff1673ffffffffffffffffffffffffffffffffffffffff1663b009ec4c8884896040518463ffffffff1660e01b81526004016116eb93929190612c82565b6020604051808303815f875af1158015611707573d5f5f3e3d5ffd5b505050506040513d601f19601f8201168201806040525081019061172b9190612cf6565b94505050505092915050565b5f5f611741611db0565b9050806001015f9054906101000a900473ffffffffffffffffffffffffffffffffffffffff1673ffffffffffffffffffffffffffffffffffffffff1663196d0b9b863387876040518563ffffffff1660e01b81526004016117a59493929190612da3565b6020604051808303815f875af11580156117c1573d5f5f3e3d5ffd5b505050506040513d601f19601f820116820180604052508101906117e59190612e17565b9150805f015f9054906101000a900473ffffffffffffffffffffffffffffffffffffffff1673ffffffffffffffffffffffffffffffffffffffff16633e395cec83336040518363ffffffff1660e01b8152600401611844929190612e42565b5f604051808303815f87803b15801561185b575f5ffd5b505af115801561186d573d5f5f3e3d5ffd5b50505050509392505050565b5f611882611db0565b9050805f015f9054906101000a900473ffffffffffffffffffffffffffffffffffffffff1673ffffffffffffffffffffffffffffffffffffffff16633e395cec84846040518363ffffffff1660e01b81526004016118e1929190612e42565b5f604051808303815f87803b1580156118f8575f5ffd5b505af115801561190a573d5f5f3e3d5ffd5b50505050505050565b5f5f821561192757600160f81b905061192e565b5f60f81b90505b5f611937611db0565b9050806001015f9054906101000a900473ffffffffffffffffffffffffffffffffffffffff1673ffffffffffffffffffffffffffffffffffffffff1663182b6d988787856040518463ffffffff1660e01b815260040161199993929190612ea3565b6020604051808303815f875af11580156119b5573d5f5f3e3d5ffd5b505050506040513d601f19601f820116820180604052508101906119d99190612e17565b925050509392505050565b5f5f82156119f857600160f81b90506119ff565b5f60f81b90505b5f611a08611db0565b9050806001015f9054906101000a900473ffffffffffffffffffffffffffffffffffffffff1673ffffffffffffffffffffffffffffffffffffffff1663117b2f388787856040518463ffffffff1660e01b8152600401611a6a93929190612ea3565b6020604051808303815f875af1158015611a86573d5f5f3e3d5ffd5b505050506040513d601f19601f82011682018060405250810190611aaa9190612e17565b925050509392505050565b5f611abe611db0565b9050805f015f9054906101000a900473ffffffffffffffffffffffffffffffffffffffff1673ffffffffffffffffffffffffffffffffffffffff1663b9496b6284846040518363ffffffff1660e01b8152600401611b1d929190612e42565b5f604051808303815f87803b158015611b34575f5ffd5b505af1158015611b46573d5f5f3e3d5ffd5b50505050505050565b5f5f8215611b6357600160f81b9050611b6a565b5f60f81b90505b5f611b73611db0565b9050806001015f9054906101000a900473ffffffffffffffffffffffffffffffffffffffff1673ffffffffffffffffffffffffffffffffffffffff1663721076818787856040518463ffffffff1660e01b8152600401611bd593929190612ea3565b6020604051808303815f875af1158015611bf1573d5f5f3e3d5ffd5b505050506040513d601f19601f82011682018060405250810190611c159190612e17565b925050509392505050565b5f5f611c2a611db0565b9050806001015f9054906101000a900473ffffffffffffffffffffffffffffffffffffffff1673ffffffffffffffffffffffffffffffffffffffff16637702dcff8686866040518463ffffffff1660e01b8152600401611c8c93929190612ed8565b6020604051808303815f875af1158015611ca8573d5f5f3e3d5ffd5b505050506040513d601f19601f82011682018060405250810190611ccc9190612e17565b9150509392505050565b5f5f611ce0611db0565b9050806001015f9054906101000a900473ffffffffffffffffffffffffffffffffffffffff1673ffffffffffffffffffffffffffffffffffffffff16639cd07acb85856040518363ffffffff1660e01b8152600401611d40929190612f0d565b6020604051808303815f875af1158015611d5c573d5f5f3e3d5ffd5b505050506040513d601f19601f82011682018060405250810190611d809190612e17565b91505092915050565b5f7f5ea69329017273582817d320489fbd94f775580e90c092699ca6f3d12fdf7d00905090565b5f7fed8d60e34876f751cc8b014c560745351147d9de11b9347c854e881b128ea600905090565b5f611de0611d89565b90505f816002015f8581526020019081526020015f208054905014611e31576040517f3f06d22b00000000000000000000000000000000000000000000000000000000815260040160405180910390fd5b81816002015f8581526020019081526020015f209080519060200190611e58929190611f4b565b50505050565b5f5f825190505f5f5f90505b82811015611f31575f858281518110611e8657611e856126e7565b5b6020026020010151601e60208110611ea157611ea06126e7565b5b1a60f81b60f81c60ff166053811115611ebd57611ebc612d30565b5b90506009816053811115611ed457611ed3612d30565b5b60ff161015611ef157602083611eea9190612f34565b9250611f23565b6040517fce54a8d100000000000000000000000000000000000000000000000000000000815260040160405180910390fd5b508080600101915050611e6a565b50602081611f3f9190612f34565b90508092505050919050565b828054828255905f5260205f20908101928215611f85579160200282015b82811115611f84578251825591602001919060010190611f69565b5b509050611f929190611f96565b5090565b5b80821115611fad575f815f905550600101611f97565b5090565b5f73ffffffffffffffffffffffffffffffffffffffff82169050919050565b5f611fda82611fb1565b9050919050565b611fea81611fd0565b82525050565b5f6020820190506120035f830184611fe1565b92915050565b5f604051905090565b5f5ffd5b5f5ffd5b61202381611fd0565b811461202d575f5ffd5b50565b5f8135905061203e8161201a565b92915050565b5f819050919050565b61205681612044565b8114612060575f5ffd5b50565b5f813590506120718161204d565b92915050565b5f5ffd5b5f5ffd5b5f5ffd5b5f5f83601f84011261209857612097612077565b5b8235905067ffffffffffffffff8111156120b5576120b461207b565b5b6020830191508360018202830111156120d1576120d061207f565b5b9250929050565b5f5f5f5f5f608086880312156120f1576120f0612012565b5b5f6120fe88828901612030565b955050602061210f88828901612030565b945050604061212088828901612063565b935050606086013567ffffffffffffffff81111561214157612140612016565b5b61214d88828901612083565b92509250509295509295909350565b5f7fffffffff0000000000000000000000000000000000000000000000000000000082169050919050565b6121908161215c565b82525050565b5f6020820190506121a95f830184612187565b92915050565b6121b881612044565b82525050565b5f6020820190506121d15f8301846121af565b92915050565b5f5ffd5b5f601f19601f8301169050919050565b7f4e487b71000000000000000000000000000000000000000000000000000000005f52604160045260245ffd5b612221826121db565b810181811067ffffffffffffffff821117156122405761223f6121eb565b5b80604052505050565b5f612252612009565b905061225e8282612218565b919050565b5f67ffffffffffffffff82111561227d5761227c6121eb565b5b612286826121db565b9050602081019050919050565b828183375f83830152505050565b5f6122b36122ae84612263565b612249565b9050828152602081018484840111156122cf576122ce6121d7565b5b6122da848285612293565b509392505050565b5f82601f8301126122f6576122f5612077565b5b81356123068482602086016122a1565b91505092915050565b5f67ffffffffffffffff821115612329576123286121eb565b5b602082029050602081019050919050565b5f61234c6123478461230f565b612249565b9050808382526020820190506020840283018581111561236f5761236e61207f565b5b835b818110156123b657803567ffffffffffffffff81111561239457612393612077565b5b8086016123a189826122e2565b85526020850194505050602081019050612371565b5050509392505050565b5f82601f8301126123d4576123d3612077565b5b81356123e484826020860161233a565b91505092915050565b5f5f5f6060848603121561240457612403612012565b5b5f61241186828701612063565b935050602084013567ffffffffffffffff81111561243257612431612016565b5b61243e868287016122e2565b925050604084013567ffffffffffffffff81111561245f5761245e612016565b5b61246b868287016123c0565b9150509250925092565b5f819050919050565b61248781612475565b8114612491575f5ffd5b50565b5f813590506124a28161247e565b92915050565b5f5f5f604084860312156124bf576124be612012565b5b5f6124cc86828701612494565b935050602084013567ffffffffffffffff8111156124ed576124ec612016565b5b6124f986828701612083565b92509250509250925092565b5f6020828403121561251a57612519612012565b5b5f61252784828501612030565b91505092915050565b5f819050919050565b5f61255361254e61254984611fb1565b612530565b611fb1565b9050919050565b5f61256482612539565b9050919050565b5f6125758261255a565b9050919050565b6125858161256b565b82525050565b5f60208201905061259e5f83018461257c565b92915050565b5f6125ae82612475565b9050919050565b6125be816125a4565b82525050565b5f6020820190506125d75f8301846125b5565b92915050565b5f8115159050919050565b6125f1816125dd565b82525050565b5f60208201905061260a5f8301846125e8565b92915050565b5f61261a8261255a565b9050919050565b61262a81612610565b82525050565b5f6020820190506126435f830184612621565b92915050565b5f82825260208201905092915050565b7f57696e6e696e67206164647265737320686173206e6f74206265656e206465635f8201527f6964656420796574000000000000000000000000000000000000000000000000602082015250565b5f6126b3602883612649565b91506126be82612659565b604082019050919050565b5f6020820190508181035f8301526126e0816126a7565b9050919050565b7f4e487b71000000000000000000000000000000000000000000000000000000005f52603260045260245ffd5b7f496e76616c6964207265717565737449640000000000000000000000000000005f82015250565b5f612748601183612649565b915061275382612714565b602082019050919050565b5f6020820190508181035f8301526127758161273c565b9050919050565b5f61278682611fb1565b9050919050565b6127968161277c565b81146127a0575f5ffd5b50565b5f815190506127b18161278d565b92915050565b5f602082840312156127cc576127cb612012565b5b5f6127d9848285016127a3565b91505092915050565b6127eb81612475565b81146127f5575f5ffd5b50565b5f81519050612806816127e2565b92915050565b5f6020828403121561282157612820612012565b5b5f61282e848285016127f8565b91505092915050565b5f60608201905061284a5f830186611fe1565b6128576020830185611fe1565b61286460408301846125b5565b949350505050565b5f60408201905061287f5f830185611fe1565b61288c60208301846125b5565b9392505050565b7f4f6e6c792077696e6e65722063616e20636c61696d206974656d0000000000005f82015250565b5f6128c7601a83612649565b91506128d282612893565b602082019050919050565b5f6020820190508181035f8301526128f4816128bb565b9050919050565b7f4e46542068617320616c7265616479206265656e20636c61696d6564000000005f82015250565b5f61292f601c83612649565b915061293a826128fb565b602082019050919050565b5f6020820190508181035f83015261295c81612923565b9050919050565b5f6060820190506129765f830186611fe1565b6129836020830185611fe1565b61299060408301846121af565b949350505050565b5f81519050919050565b5f82825260208201905092915050565b5f819050602082019050919050565b6129ca81612475565b82525050565b5f6129db83836129c1565b60208301905092915050565b5f602082019050919050565b5f6129fd82612998565b612a0781856129a2565b9350612a12836129b2565b805f5b83811015612a42578151612a2988826129d0565b9750612a34836129e7565b925050600181019050612a15565b5085935050505092915050565b5f6020820190508181035f830152612a6781846129f3565b905092915050565b5f606082019050612a825f8301866121af565b8181036020830152612a9481856129f3565b9050612aa36040830184612187565b949350505050565b7f4e487b71000000000000000000000000000000000000000000000000000000005f52601160045260245ffd5b5f612ae282612044565b91507fffffffffffffffffffffffffffffffffffffffffffffffffffffffffffffffff8203612b1457612b13612aab565b5b600182019050919050565b5f81519050919050565b5f82825260208201905092915050565b8281835e5f83830152505050565b5f612b5182612b1f565b612b5b8185612b29565b9350612b6b818560208601612b39565b612b74816121db565b840191505092915050565b5f81519050919050565b5f82825260208201905092915050565b5f819050602082019050919050565b5f82825260208201905092915050565b5f612bc282612b1f565b612bcc8185612ba8565b9350612bdc818560208601612b39565b612be5816121db565b840191505092915050565b5f612bfb8383612bb8565b905092915050565b5f602082019050919050565b5f612c1982612b7f565b612c238185612b89565b935083602082028501612c3585612b99565b805f5b85811015612c705784840389528151612c518582612bf0565b9450612c5c83612c03565b925060208a01995050600181019050612c38565b50829750879550505050505092915050565b5f6060820190508181035f830152612c9a81866129f3565b90508181036020830152612cae8185612b47565b90508181036040830152612cc28184612c0f565b9050949350505050565b612cd5816125dd565b8114612cdf575f5ffd5b50565b5f81519050612cf081612ccc565b92915050565b5f60208284031215612d0b57612d0a612012565b5b5f612d1884828501612ce2565b91505092915050565b612d2a81612475565b82525050565b7f4e487b71000000000000000000000000000000000000000000000000000000005f52602160045260245ffd5b60548110612d6e57612d6d612d30565b5b50565b5f819050612d7e82612d5d565b919050565b5f612d8d82612d71565b9050919050565b612d9d81612d83565b82525050565b5f608082019050612db65f830187612d21565b612dc36020830186611fe1565b8181036040830152612dd58185612b47565b9050612de46060830184612d94565b95945050505050565b612df681612475565b8114612e00575f5ffd5b50565b5f81519050612e1181612ded565b92915050565b5f60208284031215612e2c57612e2b612012565b5b5f612e3984828501612e03565b91505092915050565b5f604082019050612e555f830185612d21565b612e626020830184611fe1565b9392505050565b5f7fff0000000000000000000000000000000000000000000000000000000000000082169050919050565b612e9d81612e69565b82525050565b5f606082019050612eb65f830186612d21565b612ec36020830185612d21565b612ed06040830184612e94565b949350505050565b5f606082019050612eeb5f830186612d21565b612ef86020830185612d21565b612f056040830184612d21565b949350505050565b5f604082019050612f205f8301856121af565b612f2d6020830184612d94565b9392505050565b5f612f3e82612044565b9150612f4983612044565b9250828201905080821115612f6157612f60612aab565b5b9291505056fea26469706673582212205d5f8fc5b8ea0f23b4d02afd48e7ca38b6eab383d0f774f0f199f360790c39b964736f6c634300081c0033",
  "linkReferences": {},
  "deployedLinkReferences": {},
  "immutableReferences": {},
  "inputSourceName": "project/contracts/BlindAuction.sol",
  "buildInfoId": "solc-0_8_28-59c938bc19f5f1e90556e9020fc40e8dbaf061e6"
}