{
  "_format": "hh3-artifact-1",
  "contractName": "BlindAuction",
  "sourceName": "contracts/BlindAuction.sol",
  "abi": [
    {
      "inputs": [
        {
          "internalType": "address",
          "name": "_confidentialFungibleTokenAddress",
          "type": "address"
        }
      ],
      "stateMutability": "nonpayable",
      "type": "constructor"
    },
    {
      "inputs": [],
      "name": "AuctionNotFound",
      "type": "error"
    },
    {
      "inputs": [],
      "name": "HandlesAlreadySavedForRequestID",
      "type": "error"
    },
    {
      "inputs": [],
      "name": "InvalidKMSSignatures",
      "type": "error"
    },
    {
      "inputs": [],
      "name": "NoHandleFoundForRequestID",
      "type": "error"
    },
    {
      "inputs": [],
      "name": "OnlyOwner",
      "type": "error"
    },
    {
      "inputs": [],
      "name": "ReentrancyGuardReentrantCall",
      "type": "error"
    },
    {
      "inputs": [
        {
          "internalType": "uint256",
          "name": "time",
          "type": "uint256"
        }
      ],
      "name": "TooEarlyError",
      "type": "error"
    },
    {
      "inputs": [
        {
          "internalType": "uint256",
          "name": "time",
          "type": "uint256"
        }
      ],
      "name": "TooLateError",
      "type": "error"
    },
    {
      "inputs": [],
      "name": "UnsupportedHandleType",
      "type": "error"
    },
    {
      "inputs": [],
      "name": "WinnerNotYetRevealed",
      "type": "error"
    },
    {
      "anonymous": false,
      "inputs": [
        {
          "indexed": true,
          "internalType": "uint256",
          "name": "auctionId",
          "type": "uint256"
        },
        {
          "indexed": true,
          "internalType": "address",
          "name": "beneficiary",
          "type": "address"
        },
        {
          "indexed": false,
          "internalType": "string",
          "name": "imageUrl",
          "type": "string"
        },
        {
          "indexed": false,
          "internalType": "string",
          "name": "title",
          "type": "string"
        },
        {
          "indexed": false,
          "internalType": "uint256",
          "name": "startTime",
          "type": "uint256"
        },
        {
          "indexed": false,
          "internalType": "uint256",
          "name": "endTime",
          "type": "uint256"
        }
      ],
      "name": "AuctionCreated",
      "type": "event"
    },
    {
      "anonymous": false,
      "inputs": [
        {
          "indexed": true,
          "internalType": "uint256",
          "name": "auctionId",
          "type": "uint256"
        },
        {
          "indexed": true,
          "internalType": "address",
          "name": "bidder",
          "type": "address"
        }
      ],
      "name": "BidPlaced",
      "type": "event"
    },
    {
      "anonymous": false,
      "inputs": [
        {
          "indexed": true,
          "internalType": "uint256",
          "name": "requestID",
          "type": "uint256"
        }
      ],
      "name": "DecryptionFulfilled",
      "type": "event"
    },
    {
      "anonymous": false,
      "inputs": [
        {
          "indexed": true,
          "internalType": "address",
          "name": "owner",
          "type": "address"
        },
        {
          "indexed": false,
          "internalType": "uint256",
          "name": "amount",
          "type": "uint256"
        }
      ],
      "name": "FeesWithdrawn",
      "type": "event"
    },
    {
      "inputs": [],
      "name": "FEE_DENOMINATOR",
      "outputs": [
        {
          "internalType": "uint256",
          "name": "",
          "type": "uint256"
        }
      ],
      "stateMutability": "view",
      "type": "function"
    },
    {
      "inputs": [],
      "name": "FEE_PERCENTAGE",
      "outputs": [
        {
          "internalType": "uint256",
          "name": "",
          "type": "uint256"
        }
      ],
      "stateMutability": "view",
      "type": "function"
    },
    {
      "inputs": [
        {
          "internalType": "uint256",
          "name": "",
          "type": "uint256"
        }
      ],
      "name": "auctions",
      "outputs": [
        {
          "internalType": "address",
          "name": "beneficiary",
          "type": "address"
        },
        {
          "internalType": "string",
          "name": "imageUrl",
          "type": "string"
        },
        {
          "internalType": "string",
          "name": "title",
          "type": "string"
        },
        {
          "internalType": "string",
          "name": "description",
          "type": "string"
        },
        {
          "internalType": "string",
          "name": "category",
          "type": "string"
        },
        {
          "internalType": "string",
          "name": "location",
          "type": "string"
        },
        {
          "internalType": "euint64",
          "name": "reservePrice",
          "type": "bytes32"
        },
        {
          "internalType": "euint64",
          "name": "deposit",
          "type": "bytes32"
        },
        {
          "internalType": "uint256",
          "name": "auctionStartTime",
          "type": "uint256"
        },
        {
          "internalType": "uint256",
          "name": "auctionEndTime",
          "type": "uint256"
        },
        {
          "internalType": "euint64",
          "name": "highestBid",
          "type": "bytes32"
        },
        {
          "internalType": "eaddress",
          "name": "winningAddress",
          "type": "bytes32"
        },
        {
          "internalType": "address",
          "name": "winnerAddress",
          "type": "address"
        },
        {
          "internalType": "bool",
          "name": "isClaimed",
          "type": "bool"
        },
        {
          "internalType": "uint256",
          "name": "decryptionRequestId",
          "type": "uint256"
        }
      ],
      "stateMutability": "view",
      "type": "function"
    },
    {
      "inputs": [
        {
          "internalType": "uint256",
          "name": "auctionId",
          "type": "uint256"
        },
        {
          "internalType": "externalEuint64",
          "name": "encryptedAmount",
          "type": "bytes32"
        },
        {
          "internalType": "bytes",
          "name": "inputProof",
          "type": "bytes"
        }
      ],
      "name": "bid",
      "outputs": [],
      "stateMutability": "nonpayable",
      "type": "function"
    },
    {
      "inputs": [],
      "name": "confidentialFungibleToken",
      "outputs": [
        {
          "internalType": "contract ConfidentialFungibleToken",
          "name": "",
          "type": "address"
        }
      ],
      "stateMutability": "view",
      "type": "function"
    },
    {
      "inputs": [
        {
          "internalType": "string",
          "name": "_imageUrl",
          "type": "string"
        },
        {
          "internalType": "string[]",
          "name": "_imageUrls",
          "type": "string[]"
        },
        {
          "internalType": "string",
          "name": "_title",
          "type": "string"
        },
        {
          "internalType": "string",
          "name": "_description",
          "type": "string"
        },
        {
          "internalType": "string",
          "name": "_category",
          "type": "string"
        },
        {
          "internalType": "string",
          "name": "_location",
          "type": "string"
        },
        {
          "internalType": "uint256",
          "name": "_auctionStartTime",
          "type": "uint256"
        },
        {
          "internalType": "uint256",
          "name": "_auctionEndTime",
          "type": "uint256"
        },
        {
          "internalType": "externalEuint64",
          "name": "encryptedFeeAmount",
          "type": "bytes32"
        },
        {
          "internalType": "externalEuint64",
          "name": "encryptedReservePrice",
          "type": "bytes32"
        },
        {
          "internalType": "externalEuint64",
          "name": "encryptedDeposit",
          "type": "bytes32"
        },
        {
          "internalType": "bytes",
          "name": "inputProof",
          "type": "bytes"
        }
      ],
      "name": "createAuction",
      "outputs": [
        {
          "internalType": "uint256",
          "name": "",
          "type": "uint256"
        }
      ],
      "stateMutability": "nonpayable",
      "type": "function"
    },
    {
      "inputs": [
        {
          "internalType": "uint256",
          "name": "auctionId",
          "type": "uint256"
        }
      ],
      "name": "decryptWinningAddress",
      "outputs": [],
      "stateMutability": "nonpayable",
      "type": "function"
    },
    {
      "inputs": [
        {
          "internalType": "uint256",
          "name": "auctionId",
          "type": "uint256"
        }
      ],
      "name": "getAuction",
      "outputs": [
        {
          "internalType": "address",
          "name": "beneficiaryAddr",
          "type": "address"
        },
        {
          "internalType": "string",
          "name": "imageUrl",
          "type": "string"
        },
        {
          "internalType": "string[]",
          "name": "imageUrls",
          "type": "string[]"
        },
        {
          "internalType": "string",
          "name": "title",
          "type": "string"
        },
        {
          "internalType": "string",
          "name": "description",
          "type": "string"
        },
        {
          "internalType": "string",
          "name": "category",
          "type": "string"
        },
        {
          "internalType": "string",
          "name": "location",
          "type": "string"
        },
        {
          "internalType": "uint256",
          "name": "startTime",
          "type": "uint256"
        },
        {
          "internalType": "uint256",
          "name": "endTime",
          "type": "uint256"
        },
        {
          "internalType": "address",
          "name": "winner",
          "type": "address"
        },
        {
          "internalType": "bool",
          "name": "claimed",
          "type": "bool"
        }
      ],
      "stateMutability": "view",
      "type": "function"
    },
    {
      "inputs": [
        {
          "internalType": "uint256",
          "name": "auctionId",
          "type": "uint256"
        },
        {
          "internalType": "address",
          "name": "account",
          "type": "address"
        }
      ],
      "name": "getEncryptedBid",
      "outputs": [
        {
          "internalType": "euint64",
          "name": "",
          "type": "bytes32"
        }
      ],
      "stateMutability": "view",
      "type": "function"
    },
    {
      "inputs": [
        {
          "internalType": "address",
          "name": "user",
          "type": "address"
        }
      ],
      "name": "getUserBidAuctions",
      "outputs": [
        {
          "internalType": "uint256[]",
          "name": "",
          "type": "uint256[]"
        }
      ],
      "stateMutability": "view",
      "type": "function"
    },
    {
      "inputs": [
        {
          "internalType": "address",
          "name": "user",
          "type": "address"
        }
      ],
      "name": "getUserBidAuctionsCount",
      "outputs": [
        {
          "internalType": "uint256",
          "name": "",
          "type": "uint256"
        }
      ],
      "stateMutability": "view",
      "type": "function"
    },
    {
      "inputs": [
        {
          "internalType": "address",
          "name": "user",
          "type": "address"
        }
      ],
      "name": "getUserCreatedAuctions",
      "outputs": [
        {
          "internalType": "uint256[]",
          "name": "",
          "type": "uint256[]"
        }
      ],
      "stateMutability": "view",
      "type": "function"
    },
    {
      "inputs": [
        {
          "internalType": "address",
          "name": "user",
          "type": "address"
        }
      ],
      "name": "getUserCreatedAuctionsCount",
      "outputs": [
        {
          "internalType": "uint256",
          "name": "",
          "type": "uint256"
        }
      ],
      "stateMutability": "view",
      "type": "function"
    },
    {
      "inputs": [
        {
          "internalType": "uint256",
          "name": "auctionId",
          "type": "uint256"
        }
      ],
      "name": "getWinnerAddress",
      "outputs": [
        {
          "internalType": "address",
          "name": "",
          "type": "address"
        }
      ],
      "stateMutability": "view",
      "type": "function"
    },
    {
      "inputs": [],
      "name": "nextAuctionId",
      "outputs": [
        {
          "internalType": "uint256",
          "name": "",
          "type": "uint256"
        }
      ],
      "stateMutability": "view",
      "type": "function"
    },
    {
      "inputs": [],
      "name": "owner",
      "outputs": [
        {
          "internalType": "address",
          "name": "",
          "type": "address"
        }
      ],
      "stateMutability": "view",
      "type": "function"
    },
    {
      "inputs": [
        {
          "internalType": "uint256",
          "name": "requestId",
          "type": "uint256"
        },
        {
          "internalType": "bytes",
          "name": "cleartexts",
          "type": "bytes"
        },
        {
          "internalType": "bytes[]",
          "name": "signatures",
          "type": "bytes[]"
        }
      ],
      "name": "resolveAuctionCallback",
      "outputs": [],
      "stateMutability": "nonpayable",
      "type": "function"
    },
    {
      "inputs": [
        {
          "internalType": "uint256",
          "name": "auctionId",
          "type": "uint256"
        }
      ],
      "name": "winnerClaimPrize",
      "outputs": [],
      "stateMutability": "nonpayable",
      "type": "function"
    },
    {
      "inputs": [
        {
          "internalType": "uint256",
          "name": "auctionId",
          "type": "uint256"
        },
        {
          "internalType": "address",
          "name": "bidder",
          "type": "address"
        }
      ],
      "name": "withdraw",
      "outputs": [],
      "stateMutability": "nonpayable",
      "type": "function"
    },
    {
      "inputs": [],
      "name": "withdrawFees",
      "outputs": [],
      "stateMutability": "nonpayable",
      "type": "function"
    }
  ],
  "bytecode": "0x60806040523461019357604051601f612a2038819003918201601f19168301916001600160401b038311848410176101975780849260209460405283398101031261019357516001600160a01b03811690819003610193575f60606100626101ab565b82815282602082015282604082015201525f606061007e6101ab565b8281526020810183905260408082018490529101919091527fed8d60e34876f751cc8b014c560745351147d9de11b9347c854e881b128ea60080546001600160a01b03199081169091557fed8d60e34876f751cc8b014c560745351147d9de11b9347c854e881b128ea6018054821690557fed8d60e34876f751cc8b014c560745351147d9de11b9347c854e881b128ea6028054821690557fed8d60e34876f751cc8b014c560745351147d9de11b9347c854e881b128ea6038054821690557f5ea69329017273582817d320489fbd94f775580e90c092699ca6f3d12fdf7d0080548216905560015f818155815483163317909155600280549092169390931790556004919091555161285590816101cb8239f35b5f80fd5b634e487b7160e01b5f52604160045260245ffd5b60405190608082016001600160401b038111838210176101975760405256fe60806040526004361015610011575f80fd5b5f3560e01c80620b46f814610152578062f714ce1461014d5780632cfb72e514610148578063450ed73514610143578063476343ee1461013e578063515371a31461013957806355ea29b314610134578063571a26a01461012f5780636a7e1fb41461012a57806378bd7935146101255780637f1d96d11461012057806388d5f5311461011b5780638d1d6d3e146101165780638da5cb5b146101115780639a45ac8f1461010c578063a62122ea14610107578063d73792a914610102578063f21eec3b146100fd578063f279f9ad146100f85763fc528482146100f3575f80fd5b611520565b6114ab565b611320565b611304565b610fb0565b610e8c565b610db9565b610d7e565b610cec565b610cc4565b610bbf565b610a79565b6109ba565b61079d565b6106fa565b6105ad565b610528565b610423565b610192565b610165565b5f91031261016157565b5f80fd5b34610161575f3660031901126101615760206040516103e88152f35b6001600160a01b0381160361016157565b34610161576040366003190112610161576004356024356101b281610181565b600454821015610354575f828152600560205260409020600d01546001600160a01b031615610345576101ed825f52600560205260405f2090565b600d81015461020c906001600160a01b03165b6001600160a01b031690565b6001600160a01b0383161461032f576102f0602084846102a58161023f6102548261023f875f52600660205260405f2090565b9060018060a01b03165f5260205260405f2090565b5460025490959061027790610271906001600160a01b0316610200565b87612122565b610295836102845f6121b8565b9384935f52600660205260405f2090565b5561029f81611dde565b50612246565b6002546102ba906001600160a01b0316610200565b604051632df5f6bf60e11b81526001600160a01b03909216600483015260248201929092529283919082905f9082906044820190565b03925af1801561032a5761030057005b6103219060203d602011610323575b6103198183610377565b81019061153d565b005b503d61030f565b61154c565b600a015463273e59bf60e11b5f5260045260245ffd5b6319507a1760e21b5f5260045ffd5b6307145c5f60e11b5f5260045ffd5b634e487b7160e01b5f52604160045260245ffd5b90601f801991011681019081106001600160401b0382111761039857604052565b610363565b6001600160401b03811161039857601f01601f191660200190565b9291926103c48261039d565b916103d26040519384610377565b829481845281830111610161578281602093845f960137010152565b9080601f8301121561016157816020610409933591016103b8565b90565b6001600160401b0381116103985760051b60200190565b34610161576060366003190112610161576004356024356001600160401b038111610161576104569036906004016103ee565b604435906001600160401b0382116101615736602383011215610161578160040135926104828461040c565b926104906040519485610377565b8484526024602085019560051b820101903682116101615760248101955b8287106104c0576103218686866115ad565b86356001600160401b038111610161576020916104e48392602436918701016103ee565b8152019601956104ae565b60206040818301928281528451809452019201905f5b8181106105125750505090565b8251845260209384019390920191600101610505565b346101615760203660031901126101615760043561054581610181565b60018060a01b03165f52600760205260405f206040519081602082549182815201915f5260205f20905f5b818110610597576105938561058781870382610377565b604051918291826104ef565b0390f35b8254845260209093019260019283019201610570565b34610161575f366003190112610161576001546001600160a01b031633036106eb576105d7611de8565b61067b60206003546105f06105eb82151590565b611716565b6106016105fc5f6121b8565b600355565b61060c600354611dde565b5060025461062c90610626906001600160a01b0316610200565b82612122565b600254610641906001600160a01b0316610200565b600154604051632df5f6bf60e11b81526001600160a01b0390911660048201526024810192909252909283919082905f9082906044820190565b03925af1801561032a576106ce575b6001546040515f81526001600160a01b03909116907fc0819c13be868895eb93e40eaceb96de976442fa1d404e5c55f14bb65a8c489a90602090a261032160015f55565b6106e69060203d602011610323576103198183610377565b61068a565b635fc483c560e01b5f5260045ffd5b3461016157602036600319011261016157600435600454811015610354575f908152600560205260409020600d01546001600160a01b0381161561074e576040516001600160a01b03919091168152602090f35b60405162461bcd60e51b815260206004820152602160248201527f57696e6e65722061646472657373206e6f74207965742064657465726d696e656044820152601960fa1b6064820152608490fd5b34610161576040366003190112610161576024356004356107bd82610181565b600454811015610354575f9081526006602090815260408083206001600160a01b03909416835292815291902054604051908152f35b90600182811c92168015610821575b602083101461080d57565b634e487b7160e01b5f52602260045260245ffd5b91607f1691610802565b9060405191825f82549261083e846107f3565b80845293600181169081156108a95750600114610865575b5061086392500383610377565b565b90505f9291925260205f20905f915b81831061088d575050906020610863928201015f610856565b6020919350806001915483858901015201910190918492610874565b90506020925061086394915060ff191682840152151560051b8201015f610856565b805180835260209291819084018484015e5f828201840152601f01601f1916010190565b9b969f9e9d99948c610968916101c09f9a956109ac9c976109b69f9a9561095a9261093e6109769961092b8861094c9560018060a01b03169052565b6101e060208901526101e08801906108cb565b9086820360408801526108cb565b9084820360608601526108cb565b9160808184039101526108cb565b8c810360a08e0152906108cb565b60c08b019e909e5260e08a01526101008901526101208801526101408701526101608601526001600160a01b0316610180850152565b15156101a0830152565b0152565b34610161576020366003190112610161576004355f90815260056020526040902080546001600160a01b03166109f26001830161082b565b906109ff6003840161082b565b92610a0c6004820161082b565b90610a196005820161082b565b610a256006830161082b565b600783015460088401546009850154600a86015491600b87015493600c88015495600d89015497610a5b8960018060a01b031690565b9860a01c60ff1699600e01549a6040519e8f9e8f9e6105939f6108ef565b3461016157602036600319011261016157600435610a9681610181565b60018060a01b03165f526008602052602060405f2054604051908152f35b9080602083519182815201916020808360051b8301019401925f915b838310610adf57505050505090565b9091929394602080610afd600193601f1986820301875289516108cb565b97019301930191939290610ad0565b969195610b7c6108639b96610b6e6101409b9f9e9c97610b608c610b9899610b52610bb79e610b8a9a60018060a01b0316845261016060208501526101608401906108cb565b916040818403910152610ab4565b8c810360608e0152906108cb565b908a820360808c01526108cb565b9088820360a08a01526108cb565b9086820360c08801526108cb565b60e08501999099526101008401526001600160a01b0316610120830152565b019015159052565b3461016157602036600319011261016157600435600454811015610354575f52600560205260405f2060018060a01b03815416906002810191600982015490600a83015490600d84015491610c166001860161082b565b93865495610c238761040c565b96610c316040519889610377565b80885260208801985f5260205f20985f905b828210610ca75750505061059395969750610c606003820161082b565b90610c6d6004820161082b565b610c856006610c7e6005850161082b565b930161082b565b6040519a8b9a60a08a901c60ff16996001600160a01b0316989295928c610b0c565b600160208192610cb68e61082b565b8152019b0191019099610c43565b34610161575f366003190112610161576002546040516001600160a01b039091168152602090f35b346101615760203660031901126101615760043560045481101561035457805f526005602052600a60405f200154804210610d6c57505f52600560205260405f20604051610d3b604082610377565b60018152602080820190368237600c83015491805115610d6757600e92610d6292526124e5565b910155005b611758565b635c269db560e01b5f5260045260245ffd5b3461016157602036600319011261016157600435610d9b81610181565b60018060a01b03165f526007602052602060405f2054604051908152f35b34610161575f366003190112610161576001546040516001600160a01b039091168152602090f35b9080601f83011215610161578135610df88161040c565b92610e066040519485610377565b81845260208085019260051b820101918383116101615760208201905b838210610e3257505050505090565b81356001600160401b03811161016157602091610e54878480948801016103ee565b815201910190610e23565b9181601f84011215610161578235916001600160401b038311610161576020838186019501011161016157565b3461016157610180366003190112610161576004356001600160401b03811161016157610ebd9036906004016103ee565b6024356001600160401b03811161016157610edc903690600401610de1565b906044356001600160401b03811161016157610efc9036906004016103ee565b916064356001600160401b03811161016157610f1c9036906004016103ee565b916084356001600160401b03811161016157610f3c9036906004016103ee565b60a4356001600160401b03811161016157610f5b9036906004016103ee565b60c43560e43561010435916101243593610144359561016435996001600160401b038b11610161576105939b610f98610fa09c3690600401610e5f565b9b909a611780565b6040519081529081906020820190565b34610161576060366003190112610161576004356024356044356001600160401b03811161016157610fe6903690600401610e5f565b919060045484101561035457835f52600560205260405f206009810154804210610d6c5750600a0154804210156112f257509061104261104892611028611de8565b61103a865f52600560205260405f2090565b9436916103b8565b90611e06565b600254909190611060906001600160a01b0316610200565b60405163344ff10160e01b81523060048201529290602084602481845afa93841561032a575f946112c4575b506110e48261109e6020935f95612122565b6002546110b3906001600160a01b0316610200565b60405163eb3155b560e01b815233600482015230602482015260448101929092529093849283919082906064820190565b03925af1801561032a576112a7575b50600254611109906001600160a01b0316610200565b60405163344ff10160e01b81523060048201529190602090839060249082905afa91821561032a5761120e93600c93611149925f91611288575b50611fb1565b61115f3361023f875f52600660205260405f2090565b548015611252579061117091611ef8565b6111863361023f875f52600660205260405f2090565b555b6112066111a13361023f875f52600660205260405f2090565b546111ab81611dde565b506111b63382612246565b600b8301906111c58254151590565b1561123e576111e26111d8828454612097565b9183549083612698565b82556111fd6111f03361203c565b9186860192835491612698565b90555b54611dde565b500154611dde565b5033907f5445de3f4fe13efb115ec05c57e09cc0e277801d0cd2ae780457ebcd8688c3915f80a361032160015f55565b81556112493361203c565b84840155611200565b506112693361023f875f52600660205260405f2090565b55335f908152600860205260409020611283908590611cf2565b611188565b6112a1915060203d602011610323576103198183610377565b5f611143565b6112bf9060203d602011610323576103198183610377565b6110f3565b60209194505f9261109e6112e76110e493853d8711610323576103198183610377565b96935050925061108c565b63273e59bf60e11b5f5260045260245ffd5b34610161575f3660031901126101615760206040516127108152f35b3461016157602036600319011261016157600435600454811015610354575f818152600560205260409020600d01546001600160a01b0316156103455760208161142a6113786102f0945f52600560205260405f2090565b916113d2600d84016113bf6113ba6113b683546113ad61139d8260018060a01b031690565b6001600160a01b03163314611d4e565b60a01c60ff1690565b1590565b611d92565b805460ff60a01b1916600160a01b179055565b6113db5f6121b8565b6113f13361023f845f52600660205260405f2090565b5561140b6112003361023f845f52600660205260405f2090565b50611424339161023f33915f52600660205260405f2090565b54612246565b600b81019061144e825461144861020060025460018060a01b031690565b90612122565b60025461147590611467906001600160a01b0316610200565b91546001600160a01b031690565b9154604051632df5f6bf60e11b81526001600160a01b0390931660048401526024830152909283919082905f9082906044820190565b34610161576020366003190112610161576004356114c881610181565b60018060a01b03165f52600860205260405f206040519081602082549182815201915f5260205f20905f5b81811061150a576105938561058781870382610377565b82548452602090930192600192830192016114f3565b34610161575f366003190112610161576020600454604051908152f35b90816020910312610161575190565b6040513d5f823e3d90fd5b90816020910312610161575161040981610181565b1561157357565b60405162461bcd60e51b8152602060048201526012602482015271125b9d985b1a59081c995c5d595cdd08125160721b6044820152606490fd5b91825f525f5160206128005f395f51905f5260205260405f20541561170757825f525f5160206128005f395f51905f5260205260405f206040519081602082549182815201915f5260205f20905f5b8181106116f157505050918161161a6113b69361161f950382610377565b61238c565b6116e257817f1af0453083661051f6e56e5c070792320652e612154bf9af8637bb1e7655b99d5f80a25f915f5b6004548110156116d65781600e61166b835f52600560205260405f2090565b01541461167a5760010161164c565b916116cc9350600d915061169d610200826020806116ac95518301019101611557565b925f52600560205260405f2090565b0180546001600160a01b0319166001600160a01b03909216919091179055565b610863600161156c565b5050506108639061156c565b63cf6c44e960e01b5f5260045ffd5b82548452602090930192600192830192016115fc565b63d66ca67560e01b5f5260045ffd5b1561171d57565b60405162461bcd60e51b81526020600482015260136024820152724e6f206665657320746f20776974686472617760681b6044820152606490fd5b634e487b7160e01b5f52603260045260245ffd5b8051821015610d675760209160051b010190565b96985093949691985098611042906117d1939b61179b611de8565b6117a68a8a106119cc565b6117b2428a1015611a07565b6117be88511515611a52565b6117ca8c511515611a93565b36916103b8565b6002546117ea90610626906001600160a01b0316610200565b6002546117ff906001600160a01b0316610200565b60405163eb3155b560e01b81523360048201523060248201526044810183905290602090829060649082905f905af1801561032a576119af575b50600354156119a7576105fc61185191600354611ef8565b60035461185d90611dde565b506118675f6121b8565b906118715f6121b8565b92600454998a986118818a611ae4565b6004556118968a5f52600560205260405f2090565b80546001600160a01b03191633178155936118b48860018701611b50565b6118c19060028601611c1b565b6118ce8b60038601611b50565b6118db9060048501611b50565b6118e89060058401611b50565b6118f59060068301611b50565b600781019182556008810192835584600982015585600a8201556119185f6121b8565b600b8201819055600d909101805460ff60a01b1916905561193890611dde565b505461194390611dde565b505461194e90611dde565b50335f9081526007602052604090208461196791611cf2565b60405192839233966119799385611d19565b037fa273c110c06f13e6694fac597b0df238d75aa0ef666b31c5a7cb400ed520f88d91a39061086360015f55565b600355611851565b6119c79060203d602011610323576103198183610377565b611839565b156119d357565b60405162461bcd60e51b815260206004820152600c60248201526b496e76616c69642074696d6560a01b6044820152606490fd5b15611a0e57565b606460405162461bcd60e51b815260206004820152602060248201527f53746172742074696d652063616e6e6f7420626520696e2074686520706173746044820152fd5b15611a5957565b60405162461bcd60e51b8152602060048201526012602482015271125b5859d948155493081c995c5d5a5c995960721b6044820152606490fd5b15611a9a57565b60405162461bcd60e51b815260206004820152600e60248201526d151a5d1b19481c995c5d5a5c995960921b6044820152606490fd5b634e487b7160e01b5f52601160045260245ffd5b5f198114611af25760010190565b611ad0565b818110611b02575050565b5f8155600101611af7565b9190601f8111611b1c57505050565b610863925f5260205f20906020601f840160051c83019310611b46575b601f0160051c0190611af7565b9091508190611b39565b91909182516001600160401b03811161039857611b7781611b7184546107f3565b84611b0d565b6020601f8211600114611bb6578190611ba79394955f92611bab575b50508160011b915f199060031b1c19161790565b9055565b015190505f80611b93565b601f19821690611bc9845f5260205f2090565b915f5b818110611c0357509583600195969710611beb575b505050811b019055565b01515f1960f88460031b161c191690555f8080611be1565b9192602060018192868b015181550194019201611bcc565b815191600160401b8311610398578154838355808410611c75575b506020611c489101915f5260205f2090565b5f915b838310611c585750505050565b6001602082611c6983945186611b50565b01920192019190611c4b565b825f528360205f2091820191015b818110611c905750611c36565b80611c9d600192546107f3565b80611caa575b5001611c83565b601f81118314611cbf57505f81555b5f611ca3565b611ce19083601f611cd3855f5260205f2090565b920160051c82019101611af7565b5f8181526020812081835555611cb9565b805490600160401b8210156103985760018201808255821015610d67575f5260205f200155565b90606092611d36611d4492979695976080855260808501906108cb565b9083820360208501526108cb565b9460408201520152565b15611d5557565b60405162461bcd60e51b81526020600482015260156024820152744f6e6c792077696e6e65722063616e20636c61696d60581b6044820152606490fd5b15611d9957565b60405162461bcd60e51b815260206004820152601c60248201527f41756374696f6e206974656d20616c726561647920636c61696d6564000000006044820152606490fd5b6104093082612246565b60025f5414611df75760025f55565b633ee5aeb560e01b5f5260045ffd5b5f5160206127e05f395f51905f5254611e52926020929091611e3290610200906001600160a01b031681565b905f60405180968195829463196d0b9b60e01b8452339060048501612662565b03925af190811561032a575f91611ed9575b505f5160206127c05f395f51905f5254611e8890610200906001600160a01b031681565b803b1561016157604051630f8e573b60e21b815260048101839052336024820152905f908290604490829084905af1801561032a57611ec5575090565b80611ed35f61040993610377565b80610157565b611ef2915060203d602011610323576103198183610377565b5f611e64565b5f602091611f65938115611fa1575b8015611f93575b5f5160206127e05f395f51905f525460405163022f65e760e31b8152600481019390935260248301919091526001600160f81b031983166044830152909384926001600160a01b0390921691839182906064820190565b03925af190811561032a575f91611f7a575090565b610409915060203d602011610323576103198183610377565b50611f9c6121ff565b611f0e565b9050611fab6121ff565b90611f07565b5f602091611f6593811561202c575b801561201e575b5f5160206127e05f395f51905f52546040516303056db360e31b8152600481019390935260248301919091526001600160f81b031983166044830152909384926001600160a01b0390921691839182906064820190565b506120276121ff565b611fc7565b90506120366121ff565b90611fc0565b5f5160206127e05f395f51905f5254604051639cd07acb60e01b81526001600160a01b03928316600482015291602091839160449183915f91166120846024840160076121ab565b5af190811561032a575f91611f7a575090565b5f602091611f65938115612112575b8015612104575b5f5160206127e05f395f51905f5254604051637210768160e01b8152600481019390935260248301919091526001600160f81b031983166044830152909384926001600160a01b0390921691839182906064820190565b5061210d6121ff565b6120ad565b905061211c6121ff565b906120a6565b5f5160206127c05f395f51905f52546001600160a01b031691823b1561016157604051630f8e573b60e21b815260048101929092526001600160a01b03166024820152905f908290818381604481015b03925af1801561032a576121835750565b5f61086391610377565b6054111561219757565b634e487b7160e01b5f52602160045260245ffd5b9060548210156121975752565b5f5160206127e05f395f51905f5254604051639cd07acb60e01b81526004810192909252602090829060449082905f906001600160a01b03166120846024840160056121ab565b5f5160206127e05f395f51905f5254604051639cd07acb60e01b81525f600482018190529091602091839160449183916001600160a01b03166120846024840160056121ab565b5f5160206127c05f395f51905f52546001600160a01b031691823b1561016157604051635ca4b5b160e11b815260048101929092526001600160a01b03166024820152905f90829081838160448101612172565b906122a48261039d565b6122b16040519182610377565b82815280926122c2601f199161039d565b0190602036910137565b90816020910312610161575180151581036101615790565b90602080835192838152019201905f5b8181106123015750505090565b82518452602093840193909201916001016122f4565b91611d3661232d926060855260608501906122e4565b906040818303910152815180825260208201916020808360051b8301019401925f915b83831061235f57505050505090565b909192939460208061237d600193601f1986820301875289516108cb565b97019301930191939290612350565b80515f905f905b808210612450575050916020916123ac612412946126ea565b6123b58161229a565b906024858301377fed8d60e34876f751cc8b014c560745351147d9de11b9347c854e881b128ea602545f906123f490610200906001600160a01b031681565b9260405196879586948593632c027b1360e21b855260048501612317565b03925af190811561032a575f91612427575090565b610409915060203d602011612449575b6124418183610377565b8101906122cc565b503d612437565b9091600961247d612461858761176c565b51601e1a61246e8161218d565b6124778161218d565b60ff1690565b10156124965761248e6001916126ea565b920190612393565b63ce54a8d160e01b5f5260045ffd5b9060206104099281815201906122e4565b916124d49060409295949584526060602085015260608401906122e4565b6001600160e01b0319909416910152565b7f5ea69329017273582817d320489fbd94f775580e90c092699ca6f3d12fdf7d01545f5160206127c05f395f51905f52549092919061252e90610200906001600160a01b031681565b803b15610161575f6040518092637d6e912360e11b825281838161255588600483016124a5565b03925af1801561032a5761264e575b507f5ea69329017273582817d320489fbd94f775580e90c092699ca6f3d12fdf7d005461259b90610200906001600160a01b031681565b90813b1561016157604051633263b83b60e01b8152915f9083908183816125ce632cfb72e560e01b888c600485016124b6565b03925af191821561032a576125e99261263a575b50836126f8565b6108636126167f5ea69329017273582817d320489fbd94f775580e90c092699ca6f3d12fdf7d0154611ae4565b7f5ea69329017273582817d320489fbd94f775580e90c092699ca6f3d12fdf7d0155565b80611ed35f61264893610377565b5f6125e2565b80611ed35f61265c93610377565b5f612564565b939261268f9061086393606093875260018060a01b031660208701526080604087015260808601906108cb565b930160056121ab565b9060646020925f60018060a01b035f5160206127e05f395f51905f5254166040519687958694637702dcff60e01b86526004860152602485015260448401525af190811561032a575f91611f7a575090565b9060208201809211611af257565b805f525f5160206128005f395f51905f5260205260405f20546127b0575f525f5160206128005f395f51905f5260205260405f208151916001600160401b03831161039857600160401b831161039857815483835580841061278a575b5060206127679101915f5260205f2090565b5f5b8381106127765750505050565b600190602084519401938184015501612769565b825f528360205f2091820191015b8181106127a55750612755565b5f8155600101612798565b633f06d22b60e01b5f5260045ffdfeed8d60e34876f751cc8b014c560745351147d9de11b9347c854e881b128ea600ed8d60e34876f751cc8b014c560745351147d9de11b9347c854e881b128ea6015ea69329017273582817d320489fbd94f775580e90c092699ca6f3d12fdf7d02a2646970667358221220dca1801eb81f253b725497045734d6e333e7bb476733e12c924028fd4439f79564736f6c634300081c0033",
  "linkReferences": {},
  "deployedLinkReferences": {},
  "immutableReferences": {},
  "inputSourceName": "project/contracts/BlindAuction.sol",
  "buildInfoId": "solc-0_8_28-e350d5942332bc8f9bc5a93ef32f9cd996041455"
}