{
  "_format": "hh3-artifact-1",
  "contractName": "MockERC721",
  "sourceName": "contracts/MockERC721.sol",
  "abi": [
    {
      "inputs": [],
      "stateMutability": "nonpayable",
      "type": "constructor"
    },
    {
      "inputs": [
        {
          "internalType": "address",
          "name": "sender",
          "type": "address"
        },
        {
          "internalType": "uint256",
          "name": "tokenId",
          "type": "uint256"
        },
        {
          "internalType": "address",
          "name": "owner",
          "type": "address"
        }
      ],
      "name": "ERC721IncorrectOwner",
      "type": "error"
    },
    {
      "inputs": [
        {
          "internalType": "address",
          "name": "operator",
          "type": "address"
        },
        {
          "internalType": "uint256",
          "name": "tokenId",
          "type": "uint256"
        }
      ],
      "name": "ERC721InsufficientApproval",
      "type": "error"
    },
    {
      "inputs": [
        {
          "internalType": "address",
          "name": "approver",
          "type": "address"
        }
      ],
      "name": "ERC721InvalidApprover",
      "type": "error"
    },
    {
      "inputs": [
        {
          "internalType": "address",
          "name": "operator",
          "type": "address"
        }
      ],
      "name": "ERC721InvalidOperator",
      "type": "error"
    },
    {
      "inputs": [
        {
          "internalType": "address",
          "name": "owner",
          "type": "address"
        }
      ],
      "name": "ERC721InvalidOwner",
      "type": "error"
    },
    {
      "inputs": [
        {
          "internalType": "address",
          "name": "receiver",
          "type": "address"
        }
      ],
      "name": "ERC721InvalidReceiver",
      "type": "error"
    },
    {
      "inputs": [
        {
          "internalType": "address",
          "name": "sender",
          "type": "address"
        }
      ],
      "name": "ERC721InvalidSender",
      "type": "error"
    },
    {
      "inputs": [
        {
          "internalType": "uint256",
          "name": "tokenId",
          "type": "uint256"
        }
      ],
      "name": "ERC721NonexistentToken",
      "type": "error"
    },
    {
      "anonymous": false,
      "inputs": [
        {
          "indexed": true,
          "internalType": "address",
          "name": "owner",
          "type": "address"
        },
        {
          "indexed": true,
          "internalType": "address",
          "name": "approved",
          "type": "address"
        },
        {
          "indexed": true,
          "internalType": "uint256",
          "name": "tokenId",
          "type": "uint256"
        }
      ],
      "name": "Approval",
      "type": "event"
    },
    {
      "anonymous": false,
      "inputs": [
        {
          "indexed": true,
          "internalType": "address",
          "name": "owner",
          "type": "address"
        },
        {
          "indexed": true,
          "internalType": "address",
          "name": "operator",
          "type": "address"
        },
        {
          "indexed": false,
          "internalType": "bool",
          "name": "approved",
          "type": "bool"
        }
      ],
      "name": "ApprovalForAll",
      "type": "event"
    },
    {
      "anonymous": false,
      "inputs": [
        {
          "indexed": true,
          "internalType": "address",
          "name": "from",
          "type": "address"
        },
        {
          "indexed": true,
          "internalType": "address",
          "name": "to",
          "type": "address"
        },
        {
          "indexed": true,
          "internalType": "uint256",
          "name": "tokenId",
          "type": "uint256"
        }
      ],
      "name": "Transfer",
      "type": "event"
    },
    {
      "inputs": [
        {
          "internalType": "address",
          "name": "to",
          "type": "address"
        },
        {
          "internalType": "uint256",
          "name": "tokenId",
          "type": "uint256"
        }
      ],
      "name": "approve",
      "outputs": [],
      "stateMutability": "nonpayable",
      "type": "function"
    },
    {
      "inputs": [
        {
          "internalType": "address",
          "name": "owner",
          "type": "address"
        }
      ],
      "name": "balanceOf",
      "outputs": [
        {
          "internalType": "uint256",
          "name": "",
          "type": "uint256"
        }
      ],
      "stateMutability": "view",
      "type": "function"
    },
    {
      "inputs": [
        {
          "internalType": "address",
          "name": "to",
          "type": "address"
        },
        {
          "internalType": "uint256",
          "name": "amount",
          "type": "uint256"
        }
      ],
      "name": "batchMint",
      "outputs": [],
      "stateMutability": "nonpayable",
      "type": "function"
    },
    {
      "inputs": [
        {
          "internalType": "uint256",
          "name": "tokenId",
          "type": "uint256"
        }
      ],
      "name": "getApproved",
      "outputs": [
        {
          "internalType": "address",
          "name": "",
          "type": "address"
        }
      ],
      "stateMutability": "view",
      "type": "function"
    },
    {
      "inputs": [
        {
          "internalType": "address",
          "name": "owner",
          "type": "address"
        },
        {
          "internalType": "address",
          "name": "operator",
          "type": "address"
        }
      ],
      "name": "isApprovedForAll",
      "outputs": [
        {
          "internalType": "bool",
          "name": "",
          "type": "bool"
        }
      ],
      "stateMutability": "view",
      "type": "function"
    },
    {
      "inputs": [
        {
          "internalType": "address",
          "name": "to",
          "type": "address"
        }
      ],
      "name": "mint",
      "outputs": [
        {
          "internalType": "uint256",
          "name": "",
          "type": "uint256"
        }
      ],
      "stateMutability": "nonpayable",
      "type": "function"
    },
    {
      "inputs": [],
      "name": "name",
      "outputs": [
        {
          "internalType": "string",
          "name": "",
          "type": "string"
        }
      ],
      "stateMutability": "view",
      "type": "function"
    },
    {
      "inputs": [
        {
          "internalType": "uint256",
          "name": "tokenId",
          "type": "uint256"
        }
      ],
      "name": "ownerOf",
      "outputs": [
        {
          "internalType": "address",
          "name": "",
          "type": "address"
        }
      ],
      "stateMutability": "view",
      "type": "function"
    },
    {
      "inputs": [
        {
          "internalType": "address",
          "name": "from",
          "type": "address"
        },
        {
          "internalType": "address",
          "name": "to",
          "type": "address"
        },
        {
          "internalType": "uint256",
          "name": "tokenId",
          "type": "uint256"
        }
      ],
      "name": "safeTransferFrom",
      "outputs": [],
      "stateMutability": "nonpayable",
      "type": "function"
    },
    {
      "inputs": [
        {
          "internalType": "address",
          "name": "from",
          "type": "address"
        },
        {
          "internalType": "address",
          "name": "to",
          "type": "address"
        },
        {
          "internalType": "uint256",
          "name": "tokenId",
          "type": "uint256"
        },
        {
          "internalType": "bytes",
          "name": "data",
          "type": "bytes"
        }
      ],
      "name": "safeTransferFrom",
      "outputs": [],
      "stateMutability": "nonpayable",
      "type": "function"
    },
    {
      "inputs": [
        {
          "internalType": "address",
          "name": "operator",
          "type": "address"
        },
        {
          "internalType": "bool",
          "name": "approved",
          "type": "bool"
        }
      ],
      "name": "setApprovalForAll",
      "outputs": [],
      "stateMutability": "nonpayable",
      "type": "function"
    },
    {
      "inputs": [
        {
          "internalType": "bytes4",
          "name": "interfaceId",
          "type": "bytes4"
        }
      ],
      "name": "supportsInterface",
      "outputs": [
        {
          "internalType": "bool",
          "name": "",
          "type": "bool"
        }
      ],
      "stateMutability": "view",
      "type": "function"
    },
    {
      "inputs": [],
      "name": "symbol",
      "outputs": [
        {
          "internalType": "string",
          "name": "",
          "type": "string"
        }
      ],
      "stateMutability": "view",
      "type": "function"
    },
    {
      "inputs": [
        {
          "internalType": "uint256",
          "name": "tokenId",
          "type": "uint256"
        }
      ],
      "name": "tokenURI",
      "outputs": [
        {
          "internalType": "string",
          "name": "",
          "type": "string"
        }
      ],
      "stateMutability": "view",
      "type": "function"
    },
    {
      "inputs": [
        {
          "internalType": "address",
          "name": "from",
          "type": "address"
        },
        {
          "internalType": "address",
          "name": "to",
          "type": "address"
        },
        {
          "internalType": "uint256",
          "name": "tokenId",
          "type": "uint256"
        }
      ],
      "name": "transferFrom",
      "outputs": [],
      "stateMutability": "nonpayable",
      "type": "function"
    }
  ],
  "bytecode": "0x608060405234801561000f575f5ffd5b506040518060400160405280600781526020017f4d6f636b4e4654000000000000000000000000000000000000000000000000008152506040518060400160405280600481526020017f4d4e465400000000000000000000000000000000000000000000000000000000815250815f908161008a91906102df565b50806001908161009a91906102df565b5050506103ae565b5f81519050919050565b7f4e487b71000000000000000000000000000000000000000000000000000000005f52604160045260245ffd5b7f4e487b71000000000000000000000000000000000000000000000000000000005f52602260045260245ffd5b5f600282049050600182168061011d57607f821691505b6020821081036101305761012f6100d9565b5b50919050565b5f819050815f5260205f209050919050565b5f6020601f8301049050919050565b5f82821b905092915050565b5f600883026101927fffffffffffffffffffffffffffffffffffffffffffffffffffffffffffffffff82610157565b61019c8683610157565b95508019841693508086168417925050509392505050565b5f819050919050565b5f819050919050565b5f6101e06101db6101d6846101b4565b6101bd565b6101b4565b9050919050565b5f819050919050565b6101f9836101c6565b61020d610205826101e7565b848454610163565b825550505050565b5f5f905090565b610224610215565b61022f8184846101f0565b505050565b5b81811015610252576102475f8261021c565b600181019050610235565b5050565b601f8211156102975761026881610136565b61027184610148565b81016020851015610280578190505b61029461028c85610148565b830182610234565b50505b505050565b5f82821c905092915050565b5f6102b75f198460080261029c565b1980831691505092915050565b5f6102cf83836102a8565b9150826002028217905092915050565b6102e8826100a2565b67ffffffffffffffff811115610301576103006100ac565b5b61030b8254610106565b610316828285610256565b5f60209050601f831160018114610347575f8415610335578287015190505b61033f85826102c4565b8655506103a6565b601f19841661035586610136565b5f5b8281101561037c57848901518255600182019150602085019450602081019050610357565b868310156103995784890151610395601f8916826102a8565b8355505b6001600288020188555050505b505050505050565b611df5806103bb5f395ff3fe608060405234801561000f575f5ffd5b50600436106100f3575f3560e01c80636352211e11610095578063a22cb46511610064578063a22cb46514610293578063b88d4fde146102af578063c87b56dd146102cb578063e985e9c5146102fb576100f3565b80636352211e146101e55780636a6278421461021557806370a082311461024557806395d89b4114610275576100f3565b8063095ea7b3116100d1578063095ea7b31461017557806323b872dd1461019157806342842e0e146101ad57806343508b05146101c9576100f3565b806301ffc9a7146100f757806306fdde0314610127578063081812fc14610145575b5f5ffd5b610111600480360381019061010c919061162c565b61032b565b60405161011e9190611671565b60405180910390f35b61012f61040c565b60405161013c91906116fa565b60405180910390f35b61015f600480360381019061015a919061174d565b61049b565b60405161016c91906117b7565b60405180910390f35b61018f600480360381019061018a91906117fa565b6104b6565b005b6101ab60048036038101906101a69190611838565b6104cc565b005b6101c760048036038101906101c29190611838565b6105cb565b005b6101e360048036038101906101de91906117fa565b6105ea565b005b6101ff60048036038101906101fa919061174d565b610613565b60405161020c91906117b7565b60405180910390f35b61022f600480360381019061022a9190611888565b610624565b60405161023c91906118c2565b60405180910390f35b61025f600480360381019061025a9190611888565b610651565b60405161026c91906118c2565b60405180910390f35b61027d610707565b60405161028a91906116fa565b60405180910390f35b6102ad60048036038101906102a89190611905565b610797565b005b6102c960048036038101906102c49190611a6f565b6107ad565b005b6102e560048036038101906102e0919061174d565b6107d2565b6040516102f291906116fa565b60405180910390f35b61031560048036038101906103109190611aef565b610838565b6040516103229190611671565b60405180910390f35b5f7f80ac58cd000000000000000000000000000000000000000000000000000000007bffffffffffffffffffffffffffffffffffffffffffffffffffffffff1916827bffffffffffffffffffffffffffffffffffffffffffffffffffffffff191614806103f557507f5b5e139f000000000000000000000000000000000000000000000000000000007bffffffffffffffffffffffffffffffffffffffffffffffffffffffff1916827bffffffffffffffffffffffffffffffffffffffffffffffffffffffff1916145b806104055750610404826108c6565b5b9050919050565b60605f805461041a90611b5a565b80601f016020809104026020016040519081016040528092919081815260200182805461044690611b5a565b80156104915780601f1061046857610100808354040283529160200191610491565b820191905f5260205f20905b81548152906001019060200180831161047457829003601f168201915b5050505050905090565b5f6104a58261092f565b506104af826109b5565b9050919050565b6104c882826104c36109ee565b6109f5565b5050565b5f73ffffffffffffffffffffffffffffffffffffffff168273ffffffffffffffffffffffffffffffffffffffff160361053c575f6040517f64a0ae9200000000000000000000000000000000000000000000000000000000815260040161053391906117b7565b60405180910390fd5b5f61054f838361054a6109ee565b610a07565b90508373ffffffffffffffffffffffffffffffffffffffff168173ffffffffffffffffffffffffffffffffffffffff16146105c5578382826040517f64283d7b0000000000000000000000000000000000000000000000000000000081526004016105bc93929190611b8a565b60405180910390fd5b50505050565b6105e583838360405180602001604052805f8152506107ad565b505050565b5f5f90505b8181101561060e5761060083610624565b5080806001019150506105ef565b505050565b5f61061d8261092f565b9050919050565b5f5f60065f81548092919061063890611bec565b9190505590506106488382610c12565b80915050919050565b5f5f73ffffffffffffffffffffffffffffffffffffffff168273ffffffffffffffffffffffffffffffffffffffff16036106c2575f6040517f89c62b640000000000000000000000000000000000000000000000000000000081526004016106b991906117b7565b60405180910390fd5b60035f8373ffffffffffffffffffffffffffffffffffffffff1673ffffffffffffffffffffffffffffffffffffffff1681526020019081526020015f20549050919050565b60606001805461071690611b5a565b80601f016020809104026020016040519081016040528092919081815260200182805461074290611b5a565b801561078d5780601f106107645761010080835404028352916020019161078d565b820191905f5260205f20905b81548152906001019060200180831161077057829003601f168201915b5050505050905090565b6107a96107a26109ee565b8383610d05565b5050565b6107b88484846104cc565b6107cc6107c36109ee565b85858585610e6e565b50505050565b60606107dd8261092f565b505f6107e761101a565b90505f8151116108055760405180602001604052805f815250610830565b8061080f84611030565b604051602001610820929190611c6d565b6040516020818303038152906040525b915050919050565b5f60055f8473ffffffffffffffffffffffffffffffffffffffff1673ffffffffffffffffffffffffffffffffffffffff1681526020019081526020015f205f8373ffffffffffffffffffffffffffffffffffffffff1673ffffffffffffffffffffffffffffffffffffffff1681526020019081526020015f205f9054906101000a900460ff16905092915050565b5f7f01ffc9a7000000000000000000000000000000000000000000000000000000007bffffffffffffffffffffffffffffffffffffffffffffffffffffffff1916827bffffffffffffffffffffffffffffffffffffffffffffffffffffffff1916149050919050565b5f5f61093a836110fa565b90505f73ffffffffffffffffffffffffffffffffffffffff168173ffffffffffffffffffffffffffffffffffffffff16036109ac57826040517f7e2732890000000000000000000000000000000000000000000000000000000081526004016109a391906118c2565b60405180910390fd5b80915050919050565b5f60045f8381526020019081526020015f205f9054906101000a900473ffffffffffffffffffffffffffffffffffffffff169050919050565b5f33905090565b610a028383836001611133565b505050565b5f5f610a12846110fa565b90505f73ffffffffffffffffffffffffffffffffffffffff168373ffffffffffffffffffffffffffffffffffffffff1614610a5357610a528184866112f2565b5b5f73ffffffffffffffffffffffffffffffffffffffff168173ffffffffffffffffffffffffffffffffffffffff1614610ade57610a925f855f5f611133565b600160035f8373ffffffffffffffffffffffffffffffffffffffff1673ffffffffffffffffffffffffffffffffffffffff1681526020019081526020015f205f82825403925050819055505b5f73ffffffffffffffffffffffffffffffffffffffff168573ffffffffffffffffffffffffffffffffffffffff1614610b5d57600160035f8773ffffffffffffffffffffffffffffffffffffffff1673ffffffffffffffffffffffffffffffffffffffff1681526020019081526020015f205f82825401925050819055505b8460025f8681526020019081526020015f205f6101000a81548173ffffffffffffffffffffffffffffffffffffffff021916908373ffffffffffffffffffffffffffffffffffffffff160217905550838573ffffffffffffffffffffffffffffffffffffffff168273ffffffffffffffffffffffffffffffffffffffff167fddf252ad1be2c89b69c2b068fc378daa952ba7f163c4a11628f55a4df523b3ef60405160405180910390a4809150509392505050565b5f73ffffffffffffffffffffffffffffffffffffffff168273ffffffffffffffffffffffffffffffffffffffff1603610c82575f6040517f64a0ae92000000000000000000000000000000000000000000000000000000008152600401610c7991906117b7565b60405180910390fd5b5f610c8e83835f610a07565b90505f73ffffffffffffffffffffffffffffffffffffffff168173ffffffffffffffffffffffffffffffffffffffff1614610d00575f6040517f73c6ac6e000000000000000000000000000000000000000000000000000000008152600401610cf791906117b7565b60405180910390fd5b505050565b5f73ffffffffffffffffffffffffffffffffffffffff168273ffffffffffffffffffffffffffffffffffffffff1603610d7557816040517f5b08ba18000000000000000000000000000000000000000000000000000000008152600401610d6c91906117b7565b60405180910390fd5b8060055f8573ffffffffffffffffffffffffffffffffffffffff1673ffffffffffffffffffffffffffffffffffffffff1681526020019081526020015f205f8473ffffffffffffffffffffffffffffffffffffffff1673ffffffffffffffffffffffffffffffffffffffff1681526020019081526020015f205f6101000a81548160ff0219169083151502179055508173ffffffffffffffffffffffffffffffffffffffff168373ffffffffffffffffffffffffffffffffffffffff167f17307eab39ab6107e8899845ad3d59bd9653f200f220920489ca2b5937696c3183604051610e619190611671565b60405180910390a3505050565b5f8373ffffffffffffffffffffffffffffffffffffffff163b1115611013578273ffffffffffffffffffffffffffffffffffffffff1663150b7a02868685856040518563ffffffff1660e01b8152600401610ecc9493929190611ce2565b6020604051808303815f875af1925050508015610f0757506040513d601f19601f82011682018060405250810190610f049190611d40565b60015b610f88573d805f8114610f35576040519150601f19603f3d011682016040523d82523d5f602084013e610f3a565b606091505b505f815103610f8057836040517f64a0ae92000000000000000000000000000000000000000000000000000000008152600401610f7791906117b7565b60405180910390fd5b805160208201fd5b63150b7a0260e01b7bffffffffffffffffffffffffffffffffffffffffffffffffffffffff1916817bffffffffffffffffffffffffffffffffffffffffffffffffffffffff19161461101157836040517f64a0ae9200000000000000000000000000000000000000000000000000000000815260040161100891906117b7565b60405180910390fd5b505b5050505050565b606060405180602001604052805f815250905090565b60605f600161103e846113b5565b0190505f8167ffffffffffffffff81111561105c5761105b61194b565b5b6040519080825280601f01601f19166020018201604052801561108e5781602001600182028036833780820191505090505b5090505f82602083010190505b6001156110ef578080600190039150507f3031323334353637383961626364656600000000000000000000000000000000600a86061a8153600a85816110e4576110e3611d6b565b5b0494505f850361109b575b819350505050919050565b5f60025f8381526020019081526020015f205f9054906101000a900473ffffffffffffffffffffffffffffffffffffffff169050919050565b808061116b57505f73ffffffffffffffffffffffffffffffffffffffff168273ffffffffffffffffffffffffffffffffffffffff1614155b1561129d575f61117a8461092f565b90505f73ffffffffffffffffffffffffffffffffffffffff168373ffffffffffffffffffffffffffffffffffffffff16141580156111e457508273ffffffffffffffffffffffffffffffffffffffff168173ffffffffffffffffffffffffffffffffffffffff1614155b80156111f757506111f58184610838565b155b1561123957826040517fa9fbf51f00000000000000000000000000000000000000000000000000000000815260040161123091906117b7565b60405180910390fd5b811561129b57838573ffffffffffffffffffffffffffffffffffffffff168273ffffffffffffffffffffffffffffffffffffffff167f8c5be1e5ebec7d5bd14f71427d1e84f3dd0314c0f7b2291e5b200ac8c7c3b92560405160405180910390a45b505b8360045f8581526020019081526020015f205f6101000a81548173ffffffffffffffffffffffffffffffffffffffff021916908373ffffffffffffffffffffffffffffffffffffffff16021790555050505050565b6112fd838383611506565b6113b0575f73ffffffffffffffffffffffffffffffffffffffff168373ffffffffffffffffffffffffffffffffffffffff160361137157806040517f7e27328900000000000000000000000000000000000000000000000000000000815260040161136891906118c2565b60405180910390fd5b81816040517f177e802f0000000000000000000000000000000000000000000000000000000081526004016113a7929190611d98565b60405180910390fd5b505050565b5f5f5f90507a184f03e93ff9f4daa797ed6e38ed64bf6a1f0100000000000000008310611411577a184f03e93ff9f4daa797ed6e38ed64bf6a1f010000000000000000838161140757611406611d6b565b5b0492506040810190505b6d04ee2d6d415b85acef8100000000831061144e576d04ee2d6d415b85acef8100000000838161144457611443611d6b565b5b0492506020810190505b662386f26fc10000831061147d57662386f26fc10000838161147357611472611d6b565b5b0492506010810190505b6305f5e10083106114a6576305f5e100838161149c5761149b611d6b565b5b0492506008810190505b61271083106114cb5761271083816114c1576114c0611d6b565b5b0492506004810190505b606483106114ee57606483816114e4576114e3611d6b565b5b0492506002810190505b600a83106114fd576001810190505b80915050919050565b5f5f73ffffffffffffffffffffffffffffffffffffffff168373ffffffffffffffffffffffffffffffffffffffff16141580156115bd57508273ffffffffffffffffffffffffffffffffffffffff168473ffffffffffffffffffffffffffffffffffffffff16148061157e575061157d8484610838565b5b806115bc57508273ffffffffffffffffffffffffffffffffffffffff166115a4836109b5565b73ffffffffffffffffffffffffffffffffffffffff16145b5b90509392505050565b5f604051905090565b5f5ffd5b5f5ffd5b5f7fffffffff0000000000000000000000000000000000000000000000000000000082169050919050565b61160b816115d7565b8114611615575f5ffd5b50565b5f8135905061162681611602565b92915050565b5f60208284031215611641576116406115cf565b5b5f61164e84828501611618565b91505092915050565b5f8115159050919050565b61166b81611657565b82525050565b5f6020820190506116845f830184611662565b92915050565b5f81519050919050565b5f82825260208201905092915050565b8281835e5f83830152505050565b5f601f19601f8301169050919050565b5f6116cc8261168a565b6116d68185611694565b93506116e68185602086016116a4565b6116ef816116b2565b840191505092915050565b5f6020820190508181035f83015261171281846116c2565b905092915050565b5f819050919050565b61172c8161171a565b8114611736575f5ffd5b50565b5f8135905061174781611723565b92915050565b5f60208284031215611762576117616115cf565b5b5f61176f84828501611739565b91505092915050565b5f73ffffffffffffffffffffffffffffffffffffffff82169050919050565b5f6117a182611778565b9050919050565b6117b181611797565b82525050565b5f6020820190506117ca5f8301846117a8565b92915050565b6117d981611797565b81146117e3575f5ffd5b50565b5f813590506117f4816117d0565b92915050565b5f5f604083850312156118105761180f6115cf565b5b5f61181d858286016117e6565b925050602061182e85828601611739565b9150509250929050565b5f5f5f6060848603121561184f5761184e6115cf565b5b5f61185c868287016117e6565b935050602061186d868287016117e6565b925050604061187e86828701611739565b9150509250925092565b5f6020828403121561189d5761189c6115cf565b5b5f6118aa848285016117e6565b91505092915050565b6118bc8161171a565b82525050565b5f6020820190506118d55f8301846118b3565b92915050565b6118e481611657565b81146118ee575f5ffd5b50565b5f813590506118ff816118db565b92915050565b5f5f6040838503121561191b5761191a6115cf565b5b5f611928858286016117e6565b9250506020611939858286016118f1565b9150509250929050565b5f5ffd5b5f5ffd5b7f4e487b71000000000000000000000000000000000000000000000000000000005f52604160045260245ffd5b611981826116b2565b810181811067ffffffffffffffff821117156119a05761199f61194b565b5b80604052505050565b5f6119b26115c6565b90506119be8282611978565b919050565b5f67ffffffffffffffff8211156119dd576119dc61194b565b5b6119e6826116b2565b9050602081019050919050565b828183375f83830152505050565b5f611a13611a0e846119c3565b6119a9565b905082815260208101848484011115611a2f57611a2e611947565b5b611a3a8482856119f3565b509392505050565b5f82601f830112611a5657611a55611943565b5b8135611a66848260208601611a01565b91505092915050565b5f5f5f5f60808587031215611a8757611a866115cf565b5b5f611a94878288016117e6565b9450506020611aa5878288016117e6565b9350506040611ab687828801611739565b925050606085013567ffffffffffffffff811115611ad757611ad66115d3565b5b611ae387828801611a42565b91505092959194509250565b5f5f60408385031215611b0557611b046115cf565b5b5f611b12858286016117e6565b9250506020611b23858286016117e6565b9150509250929050565b7f4e487b71000000000000000000000000000000000000000000000000000000005f52602260045260245ffd5b5f6002820490506001821680611b7157607f821691505b602082108103611b8457611b83611b2d565b5b50919050565b5f606082019050611b9d5f8301866117a8565b611baa60208301856118b3565b611bb760408301846117a8565b949350505050565b7f4e487b71000000000000000000000000000000000000000000000000000000005f52601160045260245ffd5b5f611bf68261171a565b91507fffffffffffffffffffffffffffffffffffffffffffffffffffffffffffffffff8203611c2857611c27611bbf565b5b600182019050919050565b5f81905092915050565b5f611c478261168a565b611c518185611c33565b9350611c618185602086016116a4565b80840191505092915050565b5f611c788285611c3d565b9150611c848284611c3d565b91508190509392505050565b5f81519050919050565b5f82825260208201905092915050565b5f611cb482611c90565b611cbe8185611c9a565b9350611cce8185602086016116a4565b611cd7816116b2565b840191505092915050565b5f608082019050611cf55f8301876117a8565b611d0260208301866117a8565b611d0f60408301856118b3565b8181036060830152611d218184611caa565b905095945050505050565b5f81519050611d3a81611602565b92915050565b5f60208284031215611d5557611d546115cf565b5b5f611d6284828501611d2c565b91505092915050565b7f4e487b71000000000000000000000000000000000000000000000000000000005f52601260045260245ffd5b5f604082019050611dab5f8301856117a8565b611db860208301846118b3565b939250505056fea2646970667358221220b529eb73a67fb30aa03336896198504da798b92af4af674e94abf279f7610bb864736f6c634300081c0033",
  "linkReferences": {},
  "deployedLinkReferences": {},
  "immutableReferences": {},
  "inputSourceName": "project/contracts/MockERC721.sol",
  "buildInfoId": "solc-0_8_28-94b3aaa800344dd25b251c326e286e2585d908ec"
}