{
  "_format": "hh3-artifact-1",
  "contractName": "MySecretToken",
  "sourceName": "contracts/MySecretToken.sol",
  "abi": [
    {
      "inputs": [
        {
          "internalType": "string",
          "name": "name_",
          "type": "string"
        },
        {
          "internalType": "string",
          "name": "symbol_",
          "type": "string"
        },
        {
          "internalType": "string",
          "name": "tokenURI_",
          "type": "string"
        }
      ],
      "stateMutability": "nonpayable",
      "type": "constructor"
    },
    {
      "inputs": [
        {
          "internalType": "uint256",
          "name": "requestId",
          "type": "uint256"
        }
      ],
      "name": "ConfidentialFungibleTokenInvalidGatewayRequest",
      "type": "error"
    },
    {
      "inputs": [
        {
          "internalType": "address",
          "name": "receiver",
          "type": "address"
        }
      ],
      "name": "ConfidentialFungibleTokenInvalidReceiver",
      "type": "error"
    },
    {
      "inputs": [
        {
          "internalType": "address",
          "name": "sender",
          "type": "address"
        }
      ],
      "name": "ConfidentialFungibleTokenInvalidSender",
      "type": "error"
    },
    {
      "inputs": [
        {
          "internalType": "address",
          "name": "caller",
          "type": "address"
        }
      ],
      "name": "ConfidentialFungibleTokenUnauthorizedCaller",
      "type": "error"
    },
    {
      "inputs": [
        {
          "internalType": "address",
          "name": "holder",
          "type": "address"
        },
        {
          "internalType": "address",
          "name": "spender",
          "type": "address"
        }
      ],
      "name": "ConfidentialFungibleTokenUnauthorizedSpender",
      "type": "error"
    },
    {
      "inputs": [
        {
          "internalType": "euint64",
          "name": "amount",
          "type": "bytes32"
        },
        {
          "internalType": "address",
          "name": "user",
          "type": "address"
        }
      ],
      "name": "ConfidentialFungibleTokenUnauthorizedUseOfEncryptedAmount",
      "type": "error"
    },
    {
      "inputs": [
        {
          "internalType": "address",
          "name": "holder",
          "type": "address"
        }
      ],
      "name": "ConfidentialFungibleTokenZeroBalance",
      "type": "error"
    },
    {
      "inputs": [],
      "name": "HandlesAlreadySavedForRequestID",
      "type": "error"
    },
    {
      "inputs": [],
      "name": "InvalidKMSSignatures",
      "type": "error"
    },
    {
      "inputs": [],
      "name": "NoHandleFoundForRequestID",
      "type": "error"
    },
    {
      "inputs": [],
      "name": "UnsupportedHandleType",
      "type": "error"
    },
    {
      "anonymous": false,
      "inputs": [
        {
          "indexed": true,
          "internalType": "euint64",
          "name": "encryptedAmount",
          "type": "bytes32"
        },
        {
          "indexed": false,
          "internalType": "uint64",
          "name": "amount",
          "type": "uint64"
        }
      ],
      "name": "AmountDisclosed",
      "type": "event"
    },
    {
      "anonymous": false,
      "inputs": [
        {
          "indexed": true,
          "internalType": "address",
          "name": "from",
          "type": "address"
        },
        {
          "indexed": true,
          "internalType": "address",
          "name": "to",
          "type": "address"
        },
        {
          "indexed": true,
          "internalType": "euint64",
          "name": "amount",
          "type": "bytes32"
        }
      ],
      "name": "ConfidentialTransfer",
      "type": "event"
    },
    {
      "anonymous": false,
      "inputs": [
        {
          "indexed": true,
          "internalType": "uint256",
          "name": "requestID",
          "type": "uint256"
        }
      ],
      "name": "DecryptionFulfilled",
      "type": "event"
    },
    {
      "anonymous": false,
      "inputs": [
        {
          "indexed": true,
          "internalType": "address",
          "name": "holder",
          "type": "address"
        },
        {
          "indexed": true,
          "internalType": "address",
          "name": "operator",
          "type": "address"
        },
        {
          "indexed": false,
          "internalType": "uint48",
          "name": "until",
          "type": "uint48"
        }
      ],
      "name": "OperatorSet",
      "type": "event"
    },
    {
      "inputs": [
        {
          "internalType": "address",
          "name": "account",
          "type": "address"
        }
      ],
      "name": "confidentialBalanceOf",
      "outputs": [
        {
          "internalType": "euint64",
          "name": "",
          "type": "bytes32"
        }
      ],
      "stateMutability": "view",
      "type": "function"
    },
    {
      "inputs": [],
      "name": "confidentialTotalSupply",
      "outputs": [
        {
          "internalType": "euint64",
          "name": "",
          "type": "bytes32"
        }
      ],
      "stateMutability": "view",
      "type": "function"
    },
    {
      "inputs": [
        {
          "internalType": "address",
          "name": "to",
          "type": "address"
        },
        {
          "internalType": "externalEuint64",
          "name": "encryptedAmount",
          "type": "bytes32"
        },
        {
          "internalType": "bytes",
          "name": "inputProof",
          "type": "bytes"
        }
      ],
      "name": "confidentialTransfer",
      "outputs": [
        {
          "internalType": "euint64",
          "name": "",
          "type": "bytes32"
        }
      ],
      "stateMutability": "nonpayable",
      "type": "function"
    },
    {
      "inputs": [
        {
          "internalType": "address",
          "name": "to",
          "type": "address"
        },
        {
          "internalType": "euint64",
          "name": "amount",
          "type": "bytes32"
        }
      ],
      "name": "confidentialTransfer",
      "outputs": [
        {
          "internalType": "euint64",
          "name": "",
          "type": "bytes32"
        }
      ],
      "stateMutability": "nonpayable",
      "type": "function"
    },
    {
      "inputs": [
        {
          "internalType": "address",
          "name": "to",
          "type": "address"
        },
        {
          "internalType": "euint64",
          "name": "amount",
          "type": "bytes32"
        },
        {
          "internalType": "bytes",
          "name": "data",
          "type": "bytes"
        }
      ],
      "name": "confidentialTransferAndCall",
      "outputs": [
        {
          "internalType": "euint64",
          "name": "transferred",
          "type": "bytes32"
        }
      ],
      "stateMutability": "nonpayable",
      "type": "function"
    },
    {
      "inputs": [
        {
          "internalType": "address",
          "name": "to",
          "type": "address"
        },
        {
          "internalType": "externalEuint64",
          "name": "encryptedAmount",
          "type": "bytes32"
        },
        {
          "internalType": "bytes",
          "name": "inputProof",
          "type": "bytes"
        },
        {
          "internalType": "bytes",
          "name": "data",
          "type": "bytes"
        }
      ],
      "name": "confidentialTransferAndCall",
      "outputs": [
        {
          "internalType": "euint64",
          "name": "transferred",
          "type": "bytes32"
        }
      ],
      "stateMutability": "nonpayable",
      "type": "function"
    },
    {
      "inputs": [
        {
          "internalType": "address",
          "name": "from",
          "type": "address"
        },
        {
          "internalType": "address",
          "name": "to",
          "type": "address"
        },
        {
          "internalType": "externalEuint64",
          "name": "encryptedAmount",
          "type": "bytes32"
        },
        {
          "internalType": "bytes",
          "name": "inputProof",
          "type": "bytes"
        }
      ],
      "name": "confidentialTransferFrom",
      "outputs": [
        {
          "internalType": "euint64",
          "name": "transferred",
          "type": "bytes32"
        }
      ],
      "stateMutability": "nonpayable",
      "type": "function"
    },
    {
      "inputs": [
        {
          "internalType": "address",
          "name": "from",
          "type": "address"
        },
        {
          "internalType": "address",
          "name": "to",
          "type": "address"
        },
        {
          "internalType": "euint64",
          "name": "amount",
          "type": "bytes32"
        }
      ],
      "name": "confidentialTransferFrom",
      "outputs": [
        {
          "internalType": "euint64",
          "name": "transferred",
          "type": "bytes32"
        }
      ],
      "stateMutability": "nonpayable",
      "type": "function"
    },
    {
      "inputs": [
        {
          "internalType": "address",
          "name": "from",
          "type": "address"
        },
        {
          "internalType": "address",
          "name": "to",
          "type": "address"
        },
        {
          "internalType": "externalEuint64",
          "name": "encryptedAmount",
          "type": "bytes32"
        },
        {
          "internalType": "bytes",
          "name": "inputProof",
          "type": "bytes"
        },
        {
          "internalType": "bytes",
          "name": "data",
          "type": "bytes"
        }
      ],
      "name": "confidentialTransferFromAndCall",
      "outputs": [
        {
          "internalType": "euint64",
          "name": "transferred",
          "type": "bytes32"
        }
      ],
      "stateMutability": "nonpayable",
      "type": "function"
    },
    {
      "inputs": [
        {
          "internalType": "address",
          "name": "from",
          "type": "address"
        },
        {
          "internalType": "address",
          "name": "to",
          "type": "address"
        },
        {
          "internalType": "euint64",
          "name": "amount",
          "type": "bytes32"
        },
        {
          "internalType": "bytes",
          "name": "data",
          "type": "bytes"
        }
      ],
      "name": "confidentialTransferFromAndCall",
      "outputs": [
        {
          "internalType": "euint64",
          "name": "transferred",
          "type": "bytes32"
        }
      ],
      "stateMutability": "nonpayable",
      "type": "function"
    },
    {
      "inputs": [],
      "name": "decimals",
      "outputs": [
        {
          "internalType": "uint8",
          "name": "",
          "type": "uint8"
        }
      ],
      "stateMutability": "view",
      "type": "function"
    },
    {
      "inputs": [
        {
          "internalType": "euint64",
          "name": "encryptedAmount",
          "type": "bytes32"
        }
      ],
      "name": "discloseEncryptedAmount",
      "outputs": [],
      "stateMutability": "nonpayable",
      "type": "function"
    },
    {
      "inputs": [
        {
          "internalType": "uint256",
          "name": "requestId",
          "type": "uint256"
        },
        {
          "internalType": "uint64",
          "name": "amount",
          "type": "uint64"
        },
        {
          "internalType": "bytes[]",
          "name": "signatures",
          "type": "bytes[]"
        }
      ],
      "name": "finalizeDiscloseEncryptedAmount",
      "outputs": [],
      "stateMutability": "nonpayable",
      "type": "function"
    },
    {
      "inputs": [
        {
          "internalType": "address",
          "name": "holder",
          "type": "address"
        },
        {
          "internalType": "address",
          "name": "spender",
          "type": "address"
        }
      ],
      "name": "isOperator",
      "outputs": [
        {
          "internalType": "bool",
          "name": "",
          "type": "bool"
        }
      ],
      "stateMutability": "view",
      "type": "function"
    },
    {
      "inputs": [],
      "name": "name",
      "outputs": [
        {
          "internalType": "string",
          "name": "",
          "type": "string"
        }
      ],
      "stateMutability": "view",
      "type": "function"
    },
    {
      "inputs": [
        {
          "internalType": "address",
          "name": "operator",
          "type": "address"
        },
        {
          "internalType": "uint48",
          "name": "until",
          "type": "uint48"
        }
      ],
      "name": "setOperator",
      "outputs": [],
      "stateMutability": "nonpayable",
      "type": "function"
    },
    {
      "inputs": [],
      "name": "symbol",
      "outputs": [
        {
          "internalType": "string",
          "name": "",
          "type": "string"
        }
      ],
      "stateMutability": "view",
      "type": "function"
    },
    {
      "inputs": [],
      "name": "tokenURI",
      "outputs": [
        {
          "internalType": "string",
          "name": "",
          "type": "string"
        }
      ],
      "stateMutability": "view",
      "type": "function"
    }
  ],
  "bytecode": "0x6080604052346104505761213b8038038061001981610454565b92833981016060828203126104505781516001600160401b0381116104505781610044918401610479565b60208301519092906001600160401b0381116104505782610066918301610479565b60408201519092906001600160401b038111610450576100869201610479565b82516001600160401b0381116102a557600454600181811c91168015610446575b602082101461028757601f81116103e3575b506020601f821160011461038057819293945f92610375575b50508160011b915f199060031b1c1916176004555b81516001600160401b0381116102a557600554600181811c9116801561036b575b602082101461028757601f8111610325575b50602092601f82116001146102c457928192935f926102b9575b50508160011b915f199060031b1c1916176005555b80516001600160401b0381116102a557600654600181811c9116801561029b575b602082101461028757601f8111610224575b50602091601f82116001146101c4579181925f926101b9575b50508160011b915f199060031b1c1916176006555b604051611c7090816104cb8239f35b015190505f80610195565b601f1982169260065f52805f20915f5b85811061020c575083600195106101f4575b505050811b016006556101aa565b01515f1960f88460031b161c191690555f80806101e6565b919260206001819286850151815501940192016101d4565b60065f527ff652222313e28459528d920b65115c16c04f3efc82aaedc97be59f3f377c0d3f601f830160051c8101916020841061027d575b601f0160051c01905b818110610272575061017c565b5f8155600101610265565b909150819061025c565b634e487b7160e01b5f52602260045260245ffd5b90607f169061016a565b634e487b7160e01b5f52604160045260245ffd5b015190505f80610134565b601f1982169360055f52805f20915f5b86811061030d57508360019596106102f5575b505050811b01600555610149565b01515f1960f88460031b161c191690555f80806102e7565b919260206001819286850151815501940192016102d4565b60055f5260205f20601f830160051c81019160208410610361575b601f0160051c01905b818110610356575061011a565b5f8155600101610349565b9091508190610340565b90607f1690610108565b015190505f806100d2565b601f1982169060045f52805f20915f5b8181106103cb575095836001959697106103b3575b505050811b016004556100e7565b01515f1960f88460031b161c191690555f80806103a5565b9192602060018192868b015181550194019201610390565b60045f527f8a35acfbc15ff81a39ae7d344fd709f28e8600b4aa8c65c6b64bfe7fe36bd19b601f830160051c8101916020841061043c575b601f0160051c01905b81811061043157506100b9565b5f8155600101610424565b909150819061041b565b90607f16906100a7565b5f80fd5b6040519190601f01601f191682016001600160401b038111838210176102a557604052565b81601f82011215610450578051906001600160401b0382116102a5576104a8601f8301601f1916602001610454565b928284526020838301011161045057815f9260208093018386015e830101529056fe60806040526004361015610011575f80fd5b5f3560e01c806306fdde03146101345780632fb74e621461012f578063313ce5671461012a578063344ff1011461012557806334c45743146101205780633c130d901461011b578063537d3c501461011657806354095227146101115780635bebed7e1461010c5780637279e2641461010757806395d89b4114610102578063b6363cf2146100fd578063c535803c146100f8578063c7b8a75e146100f3578063d4febb96146100ee578063de642119146100e9578063e064b9bb146100e45763eb3155b5146100df575f80fd5b610c42565b610bde565b610b66565b610ace565b610a61565b61084f565b610819565b610764565b610693565b6105ba565b61059d565b610541565b61048c565b610381565b61034a565b61032f565b6102cb565b61017f565b5f91031261014357565b5f80fd5b805180835260209291819084018484015e5f828201840152601f01601f1916010190565b90602061017c928181520190610147565b90565b34610143575f366003190112610143576040515f6004548060011c9060018116908115610268575b60208310821461025457828552602085019190811561023b57506001146101e9575b6101e5846101d981860382610605565b6040519182918261016b565b0390f35b60045f9081529250907f8a35acfbc15ff81a39ae7d344fd709f28e8600b4aa8c65c6b64bfe7fe36bd19b5b818410610227575050016101d9826101c9565b805484840152602090930192600101610214565b60ff191682525090151560051b0190506101d9826101c9565b634e487b7160e01b5f52602260045260245ffd5b91607f16916101a7565b600435906001600160a01b038216820361014357565b602435906001600160a01b038216820361014357565b9181601f84011215610143578235916001600160401b038311610143576020838186019501011161014357565b34610143576060366003190112610143576102e4610272565b602435604435916001600160401b038311610143576103206103279261031a610313602096369060040161029e565b369161065d565b90610ebc565b9033610fb8565b604051908152f35b34610143575f36600319011261014357602060405160068152f35b34610143576020366003190112610143576001600160a01b0361036b610272565b165f525f602052602060405f2054604051908152f35b346101435760a03660031901126101435761039a610272565b6103a2610288565b604435916064356001600160401b038111610143576103c590369060040161029e565b9190926084356001600160401b0381116101435761040e9561031a6103f161040893369060040161029e565b97909661031333886104033382610e45565b610c8d565b91611007565b5f516020611bdb5f395f51905f52546001600160a01b031690813b1561014357604051630f8e573b60e21b815260048101829052336024820152915f908390604490829084905af1918215610487576101e592610477575b506040519081529081906020820190565b5f61048191610605565b5f610466565b611121565b34610143575f366003190112610143576040515f6006548060011c9060018116908115610537575b60208310821461025457828552602085019190811561023b57506001146104e5576101e5846101d981860382610605565b60065f9081529250907ff652222313e28459528d920b65115c16c04f3efc82aaedc97be59f3f377c0d3f5b818410610523575050016101d9826101c9565b805484840152602090930192600101610510565b91607f16916104b4565b346101435760603660031901126101435761055a610272565b602435604435916001600160401b0383116101435761058061040e93369060040161029e565b9290916105973383610592338261153d565b610cba565b33611007565b34610143575f366003190112610143576020600354604051908152f35b346101435760403660031901126101435760206103276105d8610272565b602435906105eb3383610592338261153d565b33610fb8565b634e487b7160e01b5f52604160045260245ffd5b90601f801991011681019081106001600160401b0382111761062657604052565b6105f1565b6001600160401b0381116106265760051b60200190565b6001600160401b03811161062657601f01601f191660200190565b92919261066982610642565b916106776040519384610605565b829481845281830111610143578281602093845f960137010152565b34610143576060366003190112610143576024356001600160401b0381168103610143576044356001600160401b0381116101435736602382011215610143578060040135916106e28361062b565b916106f06040519384610605565b8383526024602084019460051b820101903682116101435760248101945b828610610724576107228585600435610cfa565b005b85356001600160401b03811161014357820136604382011215610143576020916107598392369060446024820135910161065d565b81520195019461070e565b34610143575f366003190112610143576040515f6005548060011c906001811690811561080f575b60208310821461025457828552602085019190811561023b57506001146107bd576101e5846101d981860382610605565b60055f9081529250907f036b6384b5eca791c62761152d0c79bb0604c104a5fb6f4eb0703f3154bb3db05b8184106107fb575050016101d9826101c9565b8054848401526020909301926001016107e8565b91607f169161078c565b34610143576040366003190112610143576020610845610837610272565b61083f610288565b90610e45565b6040519015158152f35b346101435760203660031901126101435760043561086d338261153d565b80610a4c575b61087f90823391610cba565b6040805161088d8282610605565b6001815260208101601f198301368237815115610a47578390527f5ea69329017273582817d320489fbd94f775580e90c092699ca6f3d12fdf7d01545f516020611bdb5f395f51905f52549091906108fb906108ef906001600160a01b031681565b6001600160a01b031690565b803b15610143575f84518092637d6e912360e11b82528183816109218860048301611792565b03925af1801561048757610a33575b507f5ea69329017273582817d320489fbd94f775580e90c092699ca6f3d12fdf7d0054610967906108ef906001600160a01b031681565b92833b156101435751633263b83b60e01b8152925f908490818381610998631c9e789960e21b888a600485016117a3565b03925af190811561048757610a16936109b792610a19575b5082611a1b565b610a086109e47f5ea69329017273582817d320489fbd94f775580e90c092699ca6f3d12fdf7d01546117e6565b7f5ea69329017273582817d320489fbd94f775580e90c092699ca6f3d12fdf7d0155565b5f52600260205260405f2090565b55005b80610a275f610a2d93610605565b80610139565b5f6109b0565b80610a275f610a4193610605565b5f610930565b610e94565b5061087f610a5a308361153d565b9050610873565b3461014357608036600319011261014357610a7a610272565b610a82610288565b606435916044356001600160401b03841161014357610aa861040e94369060040161029e565b939092610aba3384610592338261153d565b610ac933826104033382610e45565b611007565b3461014357604036600319011261014357610ae7610272565b6024359065ffffffffffff821680920361014357335f9081526001602090815260408083206001600160a01b03851684529091529020805465ffffffffffff1916831790556040519182526001600160a01b03169033907f921a218a75d18e8ec5704851e6b234a85725b21a2521ce889622c35dedc1fa1290602090a3005b3461014357608036600319011261014357610b7f610272565b602435906044356001600160401b03811161014357610ba290369060040161029e565b90916064356001600160401b0381116101435761040e9461031a610bcd610bd793369060040161029e565b969095369161065d565b9033611007565b3461014357608036600319011261014357610bf7610272565b610bff610288565b90604435916064356001600160401b0381116101435761040e9361031a610c2d610c3c93369060040161029e565b61031333886104033382610e45565b91610fb8565b346101435760603660031901126101435761040e610c5e610272565b610c66610288565b60443591610c793384610592338261153d565b610c8833826104033382610e45565b610fb8565b15610c96575050565b631ae7729b60e11b5f9081526001600160a01b039182166004529116602452604490fd5b15610cc3575050565b63118f6e5360e31b5f5260045260018060a01b031660245260445ffd5b15610ce85750565b630ab5f57d60e01b5f5260045260245ffd5b91825f525f516020611c1b5f395f51905f5260205260405f205415610e3657825f525f516020611c1b5f395f51905f5260205260405f206040519081602082549182815201915f5260205f20905f5b818110610e20575050509181610d67610d6c93610d70950382610605565b6116a2565b1590565b610e115781610e0e915f937f1af0453083661051f6e56e5c070792320652e612154bf9af8637bb1e7655b99d8580a27f83bbbc07896439e5d950a6cead04cbc676180af7a61cecf43f5296475057f571610dfd610dd5845f52600260205260405f2090565b5492610de385851515610ce0565b6040516001600160401b0390911681529081906020820190565b0390a25f52600260205260405f2090565b55565b63cf6c44e960e01b5f5260045ffd5b8254845260209093019260019283019201610d49565b63d66ca67560e01b5f5260045ffd5b6001600160a01b03828116911690811491908215610e6257505090565b5f9081526001602090815260408083206001600160a01b0390941683529290522065ffffffffffff9150541642111590565b634e487b7160e01b5f52603260045260245ffd5b8051821015610a475760209160051b010190565b5f516020611bfb5f395f51905f5254610f08926020929091610ee8906108ef906001600160a01b031681565b905f60405180968195829463196d0b9b60e01b84523390600485016110e9565b03925af1908115610487575f91610f89575b505f516020611bdb5f395f51905f5254610f3e906108ef906001600160a01b031681565b803b1561014357604051630f8e573b60e21b815260048101839052336024820152905f908290604490829084905af1801561048757610f7b575090565b80610a275f61017c93610605565b610fab915060203d602011610fb1575b610fa38183610605565b8101906110af565b5f610f1a565b503d610f99565b91906001600160a01b03831615610ff4576001600160a01b03811615610fe15761017c92611154565b636e41946d60e11b5f525f60045260245ffd5b631a9bbf8b60e11b5f525f60045260245ffd5b919361101861102292958685610fb8565b938486853361135a565b90602061102d611412565b606460018060a01b035f516020611bfb5f395f51905f525416945f6040519687948593637702dcff60e01b8552600485015260248401528860448401525af19081156104875761017c94611088935f9361108e575b50611154565b90611485565b6110a891935060203d602011610fb157610fa38183610605565b915f611082565b90816020910312610143575190565b605411156110c857565b634e487b7160e01b5f52602160045260245ffd5b9060548210156110c85752565b93926111169061111f93606093875260018060a01b03166020870152608060408701526080860190610147565b930160056110dc565b565b6040513d5f823e3d90fd5b156111345750565b636b8830d760e11b5f9081526001600160a01b0391909116600452602490fd5b9092916001600160a01b0382168015929161119f908415611280578061117f6111919260035461186d565b92909261118b81611863565b50600355565b611199611412565b916119bb565b9485936001600160a01b03821693841591821561122c576111ce6111c588600354611485565b61118b81611863565b1561121c575b501561120c575b506111e583611863565b507f67500e8d0ed826d2194f514dd0d8124f35648ab6e3fb5e6ed867134cffe661e95f80a4565b6112169084611b72565b5f6111db565b6112269086611b72565b5f6111d4565b61124f876112498660018060a01b03165f525f60205260405f2090565b546118ea565b61125881611863565b506112638582611b72565b6001600160a01b0385165f908152602081905260409020556111ce565b6112af8161129d8660018060a01b03165f525f60205260405f2090565b546112aa8782151561112c565b6117f9565b9190916112bb81611863565b506112c68682611b72565b6001600160a01b0386165f90815260208190526040902055611191565b6001600160a01b039182168152911660208201526040810191909152608060608201819052810183905260a09290918190848401375f828201840152601f01601f1916010190565b3d15611355573d9061133c82610642565b9161134a6040519384610605565b82523d5f602084013e565b606090565b9195949293909290863b1561140357602093929161138d9160405196879586956346083bfd60e01b8752600487016112e3565b03815f6001600160a01b0388165af15f91816113e2575b506113de57826113b261132b565b80519190826113d757636e41946d60e11b5f526001600160a01b03821660045260245ffd5b9050602001fd5b9150565b6113fc91925060203d602011610fb157610fa38183610605565b905f6113a4565b5050505050905061017c611975565b5f516020611bfb5f395f51905f5254604051639cd07acb60e01b81525f600482018190529091602091839160449183916001600160a01b03166114596024840160056110dc565b5af1908115610487575f9161146c575090565b61017c915060203d602011610fb157610fa38183610605565b5f6020916114f2938115611515575b8015611507575b5f516020611bfb5f395f51905f52546040516303056db360e31b8152600481019390935260248301919091526001600160f81b031983166044830152909384926001600160a01b0390921691839182906064820190565b03925af1908115610487575f9161146c575090565b50611510611412565b61149b565b905061151f611412565b90611494565b90816020910312610143575180151581036101435790565b5f516020611bdb5f395f51905f52546040516382027b6d60e01b815260048101929092526001600160a01b039283166024830152909160209183916044918391165afa908115610487575f91611591575090565b61017c915060203d6020116115b3575b6115ab8183610605565b810190611525565b503d6115a1565b906115c482610642565b6115d16040519182610605565b82815280926115e2601f1991610642565b0190602036910137565b90602080835192838152019201905f5b8181106116095750505090565b82518452602093840193909201916001016115fc565b91611635611643926060855260608501906115ec565b908382036020850152610147565b906040818303910152815180825260208201916020808360051b8301019401925f915b83831061167557505050505090565b9091929394602080611693600193601f198682030187528951610147565b97019301930191939290611666565b80515f905f905b80821061173d575050916020916116c261172894611a0d565b6116cb816115ba565b906024858301377fed8d60e34876f751cc8b014c560745351147d9de11b9347c854e881b128ea602545f9061170a906108ef906001600160a01b031681565b9260405196879586948593632c027b1360e21b85526004850161161f565b03925af1908115610487575f91611591575090565b9091600961176a61174e8587610ea8565b51601e1a61175b816110be565b611764816110be565b60ff1690565b10156117835761177b600191611a0d565b9201906116a9565b63ce54a8d160e01b5f5260045ffd5b90602061017c9281815201906115ec565b916117c19060409295949584526060602085015260608401906115ec565b6001600160e01b0319909416910152565b634e487b7160e01b5f52601160045260245ffd5b5f1981146117f45760010190565b6117d2565b919091602061181261180b8584611ae7565b9483611485565b91606460018060a01b035f516020611bfb5f395f51905f525416935f6040519586948593637702dcff60e01b85528a6004860152602485015260448401525af1908115610487575f9161146c575090565b61017c3082611b72565b90919080611882575061187e611975565b9190565b9161188d90836118ea565b60206118998483611ae7565b93606460018060a01b035f516020611bfb5f395f51905f525416935f6040519586948593637702dcff60e01b85528a6004860152602485015260448401525af1908115610487575f9161146c575090565b5f6020916114f2938115611965575b8015611957575b5f516020611bfb5f395f51905f525460405163022f65e760e31b8152600481019390935260248301919091526001600160f81b031983166044830152909384926001600160a01b0390921691839182906064820190565b50611960611412565b611900565b905061196f611412565b906118f9565b5f516020611bfb5f395f51905f5254604051639cd07acb60e01b81526001600482015290602090829060449082905f906001600160a01b031661145960248401836110dc565b9060646020925f60018060a01b035f516020611bfb5f395f51905f5254166040519687958694637702dcff60e01b86526004860152602485015260448401525af1908115610487575f9161146c575090565b90602082018092116117f457565b805f525f516020611c1b5f395f51905f5260205260405f2054611ad8575f525f516020611c1b5f395f51905f5260205260405f208151916001600160401b03831161062657680100000000000000008311610626578154838355808410611ab2575b506020611a8f9101915f5260205f2090565b5f5b838110611a9e5750505050565b600190602084519401938184015501611a91565b825f528360205f2091820191015b818110611acd5750611a7d565b5f8155600101611ac0565b633f06d22b60e01b5f5260045ffd5b5f6020916114f2938115611b62575b8015611b54575b5f516020611bfb5f395f51905f5254604051631391547f60e01b8152600481019390935260248301919091526001600160f81b031983166044830152909384926001600160a01b0390921691839182906064820190565b50611b5d611412565b611afd565b9050611b6c611412565b90611af6565b5f516020611bdb5f395f51905f52546001600160a01b031691823b1561014357604051635ca4b5b160e11b815260048101929092526001600160a01b03166024820152905f908290604490829084905af1801561048757611bd05750565b5f61111f9161060556feed8d60e34876f751cc8b014c560745351147d9de11b9347c854e881b128ea600ed8d60e34876f751cc8b014c560745351147d9de11b9347c854e881b128ea6015ea69329017273582817d320489fbd94f775580e90c092699ca6f3d12fdf7d02a264697066735822122044eeffee25adab7b1031be5fcc248c65bd9094e4a87c42c6af00ec64030935ff64736f6c634300081c0033",
  "linkReferences": {},
  "deployedLinkReferences": {},
  "immutableReferences": {},
  "inputSourceName": "project/contracts/MySecretToken.sol",
  "buildInfoId": "solc-0_8_28-65822569b0b4919539edb961f71d44fef50565af"
}