{
  "_format": "hh3-artifact-1",
  "contractName": "MySecretToken",
  "sourceName": "contracts/MySecretToken.sol",
  "abi": [
    {
      "inputs": [
        {
          "internalType": "string",
          "name": "name_",
          "type": "string"
        },
        {
          "internalType": "string",
          "name": "symbol_",
          "type": "string"
        },
        {
          "internalType": "string",
          "name": "tokenURI_",
          "type": "string"
        }
      ],
      "stateMutability": "nonpayable",
      "type": "constructor"
    },
    {
      "inputs": [
        {
          "internalType": "uint256",
          "name": "requestId",
          "type": "uint256"
        }
      ],
      "name": "ConfidentialFungibleTokenInvalidGatewayRequest",
      "type": "error"
    },
    {
      "inputs": [
        {
          "internalType": "address",
          "name": "receiver",
          "type": "address"
        }
      ],
      "name": "ConfidentialFungibleTokenInvalidReceiver",
      "type": "error"
    },
    {
      "inputs": [
        {
          "internalType": "address",
          "name": "sender",
          "type": "address"
        }
      ],
      "name": "ConfidentialFungibleTokenInvalidSender",
      "type": "error"
    },
    {
      "inputs": [
        {
          "internalType": "address",
          "name": "caller",
          "type": "address"
        }
      ],
      "name": "ConfidentialFungibleTokenUnauthorizedCaller",
      "type": "error"
    },
    {
      "inputs": [
        {
          "internalType": "address",
          "name": "holder",
          "type": "address"
        },
        {
          "internalType": "address",
          "name": "spender",
          "type": "address"
        }
      ],
      "name": "ConfidentialFungibleTokenUnauthorizedSpender",
      "type": "error"
    },
    {
      "inputs": [
        {
          "internalType": "euint64",
          "name": "amount",
          "type": "bytes32"
        },
        {
          "internalType": "address",
          "name": "user",
          "type": "address"
        }
      ],
      "name": "ConfidentialFungibleTokenUnauthorizedUseOfEncryptedAmount",
      "type": "error"
    },
    {
      "inputs": [
        {
          "internalType": "address",
          "name": "holder",
          "type": "address"
        }
      ],
      "name": "ConfidentialFungibleTokenZeroBalance",
      "type": "error"
    },
    {
      "inputs": [],
      "name": "HandlesAlreadySavedForRequestID",
      "type": "error"
    },
    {
      "inputs": [],
      "name": "InvalidKMSSignatures",
      "type": "error"
    },
    {
      "inputs": [],
      "name": "NoHandleFoundForRequestID",
      "type": "error"
    },
    {
      "inputs": [],
      "name": "UnsupportedHandleType",
      "type": "error"
    },
    {
      "anonymous": false,
      "inputs": [
        {
          "indexed": true,
          "internalType": "euint64",
          "name": "encryptedAmount",
          "type": "bytes32"
        },
        {
          "indexed": false,
          "internalType": "uint64",
          "name": "amount",
          "type": "uint64"
        }
      ],
      "name": "AmountDisclosed",
      "type": "event"
    },
    {
      "anonymous": false,
      "inputs": [
        {
          "indexed": true,
          "internalType": "address",
          "name": "from",
          "type": "address"
        },
        {
          "indexed": true,
          "internalType": "address",
          "name": "to",
          "type": "address"
        },
        {
          "indexed": true,
          "internalType": "euint64",
          "name": "amount",
          "type": "bytes32"
        }
      ],
      "name": "ConfidentialTransfer",
      "type": "event"
    },
    {
      "anonymous": false,
      "inputs": [
        {
          "indexed": true,
          "internalType": "uint256",
          "name": "requestID",
          "type": "uint256"
        }
      ],
      "name": "DecryptionFulfilled",
      "type": "event"
    },
    {
      "anonymous": false,
      "inputs": [
        {
          "indexed": true,
          "internalType": "address",
          "name": "holder",
          "type": "address"
        },
        {
          "indexed": true,
          "internalType": "address",
          "name": "operator",
          "type": "address"
        },
        {
          "indexed": false,
          "internalType": "uint48",
          "name": "until",
          "type": "uint48"
        }
      ],
      "name": "OperatorSet",
      "type": "event"
    },
    {
      "inputs": [
        {
          "internalType": "address",
          "name": "account",
          "type": "address"
        }
      ],
      "name": "confidentialBalanceOf",
      "outputs": [
        {
          "internalType": "euint64",
          "name": "",
          "type": "bytes32"
        }
      ],
      "stateMutability": "view",
      "type": "function"
    },
    {
      "inputs": [],
      "name": "confidentialTotalSupply",
      "outputs": [
        {
          "internalType": "euint64",
          "name": "",
          "type": "bytes32"
        }
      ],
      "stateMutability": "view",
      "type": "function"
    },
    {
      "inputs": [
        {
          "internalType": "address",
          "name": "to",
          "type": "address"
        },
        {
          "internalType": "externalEuint64",
          "name": "encryptedAmount",
          "type": "bytes32"
        },
        {
          "internalType": "bytes",
          "name": "inputProof",
          "type": "bytes"
        }
      ],
      "name": "confidentialTransfer",
      "outputs": [
        {
          "internalType": "euint64",
          "name": "",
          "type": "bytes32"
        }
      ],
      "stateMutability": "nonpayable",
      "type": "function"
    },
    {
      "inputs": [
        {
          "internalType": "address",
          "name": "to",
          "type": "address"
        },
        {
          "internalType": "euint64",
          "name": "amount",
          "type": "bytes32"
        }
      ],
      "name": "confidentialTransfer",
      "outputs": [
        {
          "internalType": "euint64",
          "name": "",
          "type": "bytes32"
        }
      ],
      "stateMutability": "nonpayable",
      "type": "function"
    },
    {
      "inputs": [
        {
          "internalType": "address",
          "name": "to",
          "type": "address"
        },
        {
          "internalType": "euint64",
          "name": "amount",
          "type": "bytes32"
        },
        {
          "internalType": "bytes",
          "name": "data",
          "type": "bytes"
        }
      ],
      "name": "confidentialTransferAndCall",
      "outputs": [
        {
          "internalType": "euint64",
          "name": "transferred",
          "type": "bytes32"
        }
      ],
      "stateMutability": "nonpayable",
      "type": "function"
    },
    {
      "inputs": [
        {
          "internalType": "address",
          "name": "to",
          "type": "address"
        },
        {
          "internalType": "externalEuint64",
          "name": "encryptedAmount",
          "type": "bytes32"
        },
        {
          "internalType": "bytes",
          "name": "inputProof",
          "type": "bytes"
        },
        {
          "internalType": "bytes",
          "name": "data",
          "type": "bytes"
        }
      ],
      "name": "confidentialTransferAndCall",
      "outputs": [
        {
          "internalType": "euint64",
          "name": "transferred",
          "type": "bytes32"
        }
      ],
      "stateMutability": "nonpayable",
      "type": "function"
    },
    {
      "inputs": [
        {
          "internalType": "address",
          "name": "from",
          "type": "address"
        },
        {
          "internalType": "address",
          "name": "to",
          "type": "address"
        },
        {
          "internalType": "externalEuint64",
          "name": "encryptedAmount",
          "type": "bytes32"
        },
        {
          "internalType": "bytes",
          "name": "inputProof",
          "type": "bytes"
        }
      ],
      "name": "confidentialTransferFrom",
      "outputs": [
        {
          "internalType": "euint64",
          "name": "transferred",
          "type": "bytes32"
        }
      ],
      "stateMutability": "nonpayable",
      "type": "function"
    },
    {
      "inputs": [
        {
          "internalType": "address",
          "name": "from",
          "type": "address"
        },
        {
          "internalType": "address",
          "name": "to",
          "type": "address"
        },
        {
          "internalType": "euint64",
          "name": "amount",
          "type": "bytes32"
        }
      ],
      "name": "confidentialTransferFrom",
      "outputs": [
        {
          "internalType": "euint64",
          "name": "transferred",
          "type": "bytes32"
        }
      ],
      "stateMutability": "nonpayable",
      "type": "function"
    },
    {
      "inputs": [
        {
          "internalType": "address",
          "name": "from",
          "type": "address"
        },
        {
          "internalType": "address",
          "name": "to",
          "type": "address"
        },
        {
          "internalType": "externalEuint64",
          "name": "encryptedAmount",
          "type": "bytes32"
        },
        {
          "internalType": "bytes",
          "name": "inputProof",
          "type": "bytes"
        },
        {
          "internalType": "bytes",
          "name": "data",
          "type": "bytes"
        }
      ],
      "name": "confidentialTransferFromAndCall",
      "outputs": [
        {
          "internalType": "euint64",
          "name": "transferred",
          "type": "bytes32"
        }
      ],
      "stateMutability": "nonpayable",
      "type": "function"
    },
    {
      "inputs": [
        {
          "internalType": "address",
          "name": "from",
          "type": "address"
        },
        {
          "internalType": "address",
          "name": "to",
          "type": "address"
        },
        {
          "internalType": "euint64",
          "name": "amount",
          "type": "bytes32"
        },
        {
          "internalType": "bytes",
          "name": "data",
          "type": "bytes"
        }
      ],
      "name": "confidentialTransferFromAndCall",
      "outputs": [
        {
          "internalType": "euint64",
          "name": "transferred",
          "type": "bytes32"
        }
      ],
      "stateMutability": "nonpayable",
      "type": "function"
    },
    {
      "inputs": [],
      "name": "decimals",
      "outputs": [
        {
          "internalType": "uint8",
          "name": "",
          "type": "uint8"
        }
      ],
      "stateMutability": "view",
      "type": "function"
    },
    {
      "inputs": [
        {
          "internalType": "euint64",
          "name": "encryptedAmount",
          "type": "bytes32"
        }
      ],
      "name": "discloseEncryptedAmount",
      "outputs": [],
      "stateMutability": "nonpayable",
      "type": "function"
    },
    {
      "inputs": [
        {
          "internalType": "uint256",
          "name": "requestId",
          "type": "uint256"
        },
        {
          "internalType": "uint64",
          "name": "amount",
          "type": "uint64"
        },
        {
          "internalType": "bytes[]",
          "name": "signatures",
          "type": "bytes[]"
        }
      ],
      "name": "finalizeDiscloseEncryptedAmount",
      "outputs": [],
      "stateMutability": "nonpayable",
      "type": "function"
    },
    {
      "inputs": [
        {
          "internalType": "address",
          "name": "holder",
          "type": "address"
        },
        {
          "internalType": "address",
          "name": "spender",
          "type": "address"
        }
      ],
      "name": "isOperator",
      "outputs": [
        {
          "internalType": "bool",
          "name": "",
          "type": "bool"
        }
      ],
      "stateMutability": "view",
      "type": "function"
    },
    {
      "inputs": [],
      "name": "name",
      "outputs": [
        {
          "internalType": "string",
          "name": "",
          "type": "string"
        }
      ],
      "stateMutability": "view",
      "type": "function"
    },
    {
      "inputs": [
        {
          "internalType": "address",
          "name": "operator",
          "type": "address"
        },
        {
          "internalType": "uint48",
          "name": "until",
          "type": "uint48"
        }
      ],
      "name": "setOperator",
      "outputs": [],
      "stateMutability": "nonpayable",
      "type": "function"
    },
    {
      "inputs": [],
      "name": "symbol",
      "outputs": [
        {
          "internalType": "string",
          "name": "",
          "type": "string"
        }
      ],
      "stateMutability": "view",
      "type": "function"
    },
    {
      "inputs": [],
      "name": "tokenURI",
      "outputs": [
        {
          "internalType": "string",
          "name": "",
          "type": "string"
        }
      ],
      "stateMutability": "view",
      "type": "function"
    }
  ],
  "bytecode": "0x608060405234801561000f575f5ffd5b50604051613b18380380613b18833981810160405281019061003191906101bc565b82828282600490816100439190610470565b5081600590816100539190610470565b5080600690816100639190610470565b5050505050505061053f565b5f604051905090565b5f5ffd5b5f5ffd5b5f5ffd5b5f5ffd5b5f601f19601f8301169050919050565b7f4e487b71000000000000000000000000000000000000000000000000000000005f52604160045260245ffd5b6100ce82610088565b810181811067ffffffffffffffff821117156100ed576100ec610098565b5b80604052505050565b5f6100ff61006f565b905061010b82826100c5565b919050565b5f67ffffffffffffffff82111561012a57610129610098565b5b61013382610088565b9050602081019050919050565b8281835e5f83830152505050565b5f61016061015b84610110565b6100f6565b90508281526020810184848401111561017c5761017b610084565b5b610187848285610140565b509392505050565b5f82601f8301126101a3576101a2610080565b5b81516101b384826020860161014e565b91505092915050565b5f5f5f606084860312156101d3576101d2610078565b5b5f84015167ffffffffffffffff8111156101f0576101ef61007c565b5b6101fc8682870161018f565b935050602084015167ffffffffffffffff81111561021d5761021c61007c565b5b6102298682870161018f565b925050604084015167ffffffffffffffff81111561024a5761024961007c565b5b6102568682870161018f565b9150509250925092565b5f81519050919050565b7f4e487b71000000000000000000000000000000000000000000000000000000005f52602260045260245ffd5b5f60028204905060018216806102ae57607f821691505b6020821081036102c1576102c061026a565b5b50919050565b5f819050815f5260205f209050919050565b5f6020601f8301049050919050565b5f82821b905092915050565b5f600883026103237fffffffffffffffffffffffffffffffffffffffffffffffffffffffffffffffff826102e8565b61032d86836102e8565b95508019841693508086168417925050509392505050565b5f819050919050565b5f819050919050565b5f61037161036c61036784610345565b61034e565b610345565b9050919050565b5f819050919050565b61038a83610357565b61039e61039682610378565b8484546102f4565b825550505050565b5f5f905090565b6103b56103a6565b6103c0818484610381565b505050565b5b818110156103e3576103d85f826103ad565b6001810190506103c6565b5050565b601f821115610428576103f9816102c7565b610402846102d9565b81016020851015610411578190505b61042561041d856102d9565b8301826103c5565b50505b505050565b5f82821c905092915050565b5f6104485f198460080261042d565b1980831691505092915050565b5f6104608383610439565b9150826002028217905092915050565b61047982610260565b67ffffffffffffffff81111561049257610491610098565b5b61049c8254610297565b6104a78282856103e7565b5f60209050601f8311600181146104d8575f84156104c6578287015190505b6104d08582610455565b865550610537565b601f1984166104e6866102c7565b5f5b8281101561050d578489015182556001820191506020850194506020810190506104e8565b8683101561052a5784890151610526601f891682610439565b8355505b6001600288020188555050505b505050505050565b6135cc8061054c5f395ff3fe608060405234801561000f575f5ffd5b5060043610610114575f3560e01c80637279e264116100a0578063c7b8a75e1161006f578063c7b8a75e14610306578063d4febb9614610336578063de64211914610352578063e064b9bb14610382578063eb3155b5146103b257610114565b80637279e2641461028057806395d89b411461029c578063b6363cf2146102ba578063c535803c146102ea57610114565b806334c45743116100e757806334c45743146101b45780633c130d90146101e4578063537d3c501461020257806354095227146102325780635bebed7e1461025057610114565b806306fdde03146101185780632fb74e6214610136578063313ce56714610166578063344ff10114610184575b5f5ffd5b6101206103e2565b60405161012d91906123ac565b60405180910390f35b610150600480360381019061014b91906124cb565b610472565b60405161015d919061255c565b60405180910390f35b61016e6104d4565b60405161017b9190612590565b60405180910390f35b61019e600480360381019061019991906125a9565b6104dc565b6040516101ab919061255c565b60405180910390f35b6101ce60048036038101906101c991906125d4565b610521565b6040516101db919061255c565b60405180910390f35b6101ec6105e4565b6040516101f991906123ac565b60405180910390f35b61021c600480360381019061021791906126b5565b610674565b604051610229919061255c565b60405180910390f35b61023a6106e8565b604051610247919061255c565b60405180910390f35b61026a60048036038101906102659190612726565b6106f1565b604051610277919061255c565b60405180910390f35b61029a600480360381019061029591906129da565b610756565b005b6102a4610817565b6040516102b191906123ac565b60405180910390f35b6102d460048036038101906102cf9190612a46565b6108a7565b6040516102e19190612a9e565b60405180910390f35b61030460048036038101906102ff9190612ab7565b61097b565b005b610320600480360381019061031b9190612ae2565b610a7a565b60405161032d919061255c565b60405180910390f35b610350600480360381019061034b9190612ba1565b610b40565b005b61036c60048036038101906103679190612bdf565b610b4f565b604051610379919061255c565b60405180910390f35b61039c60048036038101906103979190612c82565b610bc0565b6040516103a9919061255c565b60405180910390f35b6103cc60048036038101906103c79190612d06565b610c7f565b6040516103d9919061255c565b60405180910390f35b6060600480546103f190612d83565b80601f016020809104026020016040519081016040528092919081815260200182805461041d90612d83565b80156104685780601f1061043f57610100808354040283529160200191610468565b820191905f5260205f20905b81548152906001019060200180831161044b57829003601f168201915b5050505050905090565b5f6104ca33866104c58787878080601f0160208091040260200160405190810160405280939291908181526020018383808284375f81840152601f19601f82011690508083019250505050505050610d41565b610d56565b9050949350505050565b5f6006905090565b5f5f5f8373ffffffffffffffffffffffffffffffffffffffff1673ffffffffffffffffffffffffffffffffffffffff1681526020019081526020015f20549050919050565b5f61052c88336108a7565b88339091610571576040517f35cee536000000000000000000000000000000000000000000000000000000008152600401610568929190612dc2565b60405180910390fd5b50506105cc88886105c58989898080601f0160208091040260200160405190810160405280939291908181526020018383808284375f81840152601f19601f82011690508083019250505050505050610d41565b8686610e51565b90506105d88133610ea9565b50979650505050505050565b6060600680546105f390612d83565b80601f016020809104026020016040519081016040528092919081815260200182805461061f90612d83565b801561066a5780601f106106415761010080835404028352916020019161066a565b820191905f5260205f20905b81548152906001019060200180831161064d57829003601f168201915b5050505050905090565b5f61067f8433610ebd565b843390916106c4576040517f8c7b72980000000000000000000000000000000000000000000000000000000081526004016106bb929190612de9565b60405180910390fd5b50506106d33386868686610e51565b90506106df8133610ea9565b50949350505050565b5f600354905090565b5f6106fc8233610ebd565b82339091610741576040517f8c7b7298000000000000000000000000000000000000000000000000000000008152600401610738929190612de9565b60405180910390fd5b505061074e338484610d56565b905092915050565b6107608382610ed0565b5f60025f8581526020019081526020015f2054905061077e81610f53565b84906107c0576040517f0ab5f57d0000000000000000000000000000000000000000000000000000000081526004016107b79190612e1f565b60405180910390fd5b50807f83bbbc07896439e5d950a6cead04cbc676180af7a61cecf43f5296475057f571846040516107f19190612e47565b60405180910390a25f5f1b60025f8681526020019081526020015f208190555050505050565b60606005805461082690612d83565b80601f016020809104026020016040519081016040528092919081815260200182805461085290612d83565b801561089d5780601f106108745761010080835404028352916020019161089d565b820191905f5260205f20905b81548152906001019060200180831161088057829003601f168201915b5050505050905090565b5f8173ffffffffffffffffffffffffffffffffffffffff168373ffffffffffffffffffffffffffffffffffffffff161480610973575060015f8473ffffffffffffffffffffffffffffffffffffffff1673ffffffffffffffffffffffffffffffffffffffff1681526020019081526020015f205f8373ffffffffffffffffffffffffffffffffffffffff1673ffffffffffffffffffffffffffffffffffffffff1681526020019081526020015f205f9054906101000a900465ffffffffffff1665ffffffffffff164211155b905092915050565b6109858133610ebd565b801561099757506109968130610ebd565b5b813390916109dc576040517f8c7b72980000000000000000000000000000000000000000000000000000000081526004016109d3929190612de9565b60405180910390fd5b50505f600167ffffffffffffffff8111156109fa576109f96127d4565b5b604051908082528060200260200182016040528015610a285781602001602082028036833780820191505090505b50905081815f81518110610a3f57610a3e612e60565b5b6020026020010181815250505f610a5d82637279e26460e01b610f61565b90508260025f8381526020019081526020015f2081905550505050565b5f610a858433610ebd565b84339091610aca576040517f8c7b7298000000000000000000000000000000000000000000000000000000008152600401610ac1929190612de9565b60405180910390fd5b5050610ad686336108a7565b86339091610b1b576040517f35cee536000000000000000000000000000000000000000000000000000000008152600401610b12929190612dc2565b60405180910390fd5b5050610b2a8686868686610e51565b9050610b368133610ea9565b5095945050505050565b610b4b338383610f75565b5050565b5f610ba93388610ba28989898080601f0160208091040260200160405190810160405280939291908181526020018383808284375f81840152601f19601f82011690508083019250505050505050610d41565b8686610e51565b9050610bb58133610ea9565b509695505050505050565b5f610bcb86336108a7565b86339091610c10576040517f35cee536000000000000000000000000000000000000000000000000000000008152600401610c07929190612dc2565b60405180910390fd5b5050610c698686610c648787878080601f0160208091040260200160405190810160405280939291908181526020018383808284375f81840152601f19601f82011690508083019250505050505050610d41565b610d56565b9050610c758133610ea9565b5095945050505050565b5f610c8a8233610ebd565b82339091610ccf576040517f8c7b7298000000000000000000000000000000000000000000000000000000008152600401610cc6929190612de9565b60405180910390fd5b5050610cdb84336108a7565b84339091610d20576040517f35cee536000000000000000000000000000000000000000000000000000000008152600401610d17929190612dc2565b60405180910390fd5b5050610d2d848484610d56565b9050610d398133610ea9565b509392505050565b5f610d4e83836005611079565b905092915050565b5f5f73ffffffffffffffffffffffffffffffffffffffff168473ffffffffffffffffffffffffffffffffffffffff1614155f90610dc9576040517f35377f16000000000000000000000000000000000000000000000000000000008152600401610dc09190612e8d565b60405180910390fd5b505f73ffffffffffffffffffffffffffffffffffffffff168373ffffffffffffffffffffffffffffffffffffffff1614155f90610e3c576040517fdc8328da000000000000000000000000000000000000000000000000000000008152600401610e339190612e8d565b60405180910390fd5b50610e488484846111bb565b90509392505050565b5f5f610e5e878787610d56565b90505f610e6f338989858989611508565b90505f610e8f888a610e8a85610e845f611645565b88611662565b6111bb565b9050610e9b8382611677565b935050505095945050505050565b5f610eb483836116bd565b82905092915050565b5f610ec88383611757565b905092915050565b5f610eda83611808565b90505f610ee782846118cc565b905080610f20576040517fcf6c44e900000000000000000000000000000000000000000000000000000000815260040160405180910390fd5b837f1af0453083661051f6e56e5c070792320652e612154bf9af8637bb1e7655b99d60405160405180910390a250505050565b5f5f5f1b8214159050919050565b5f610f6d83835f6119ec565b905092915050565b8060015f8573ffffffffffffffffffffffffffffffffffffffff1673ffffffffffffffffffffffffffffffffffffffff1681526020019081526020015f205f8473ffffffffffffffffffffffffffffffffffffffff1673ffffffffffffffffffffffffffffffffffffffff1681526020019081526020015f205f6101000a81548165ffffffffffff021916908365ffffffffffff1602179055508173ffffffffffffffffffffffffffffffffffffffff168373ffffffffffffffffffffffffffffffffffffffff167f921a218a75d18e8ec5704851e6b234a85725b21a2521ce889622c35dedc1fa128360405161106c9190612eb5565b60405180910390a3505050565b5f5f611083611b4c565b9050806001015f9054906101000a900473ffffffffffffffffffffffffffffffffffffffff1673ffffffffffffffffffffffffffffffffffffffff1663196d0b9b863387876040518563ffffffff1660e01b81526004016110e79493929190612fa2565b6020604051808303815f875af1158015611103573d5f5f3e3d5ffd5b505050506040513d601f19601f820116820180604052508101906111279190613016565b9150805f015f9054906101000a900473ffffffffffffffffffffffffffffffffffffffff1673ffffffffffffffffffffffffffffffffffffffff16633e395cec83336040518363ffffffff1660e01b8152600401611186929190613041565b5f604051808303815f87803b15801561119d575f5ffd5b505af11580156111af573d5f5f3e3d5ffd5b50505050509392505050565b5f5f5f5f73ffffffffffffffffffffffffffffffffffffffff168673ffffffffffffffffffffffffffffffffffffffff160361121b576111fd60035485611b73565b809250819350505061120e81611bc5565b5080600381905550611311565b5f5f5f8873ffffffffffffffffffffffffffffffffffffffff1673ffffffffffffffffffffffffffffffffffffffff1681526020019081526020015f2054905061126481610f53565b87906112a6576040517fd71061ae00000000000000000000000000000000000000000000000000000000815260040161129d9190612e8d565b60405180910390fd5b506112b18186611bd8565b80935081945050506112c282611bc5565b506112cd8288611c03565b50815f5f8973ffffffffffffffffffffffffffffffffffffffff1673ffffffffffffffffffffffffffffffffffffffff1681526020019081526020015f2081905550505b611324828561131f5f611645565b611662565b92505f73ffffffffffffffffffffffffffffffffffffffff168573ffffffffffffffffffffffffffffffffffffffff160361137d5761136560035484611677565b905061137081611bc5565b508060038190555061141c565b6113c35f5f8773ffffffffffffffffffffffffffffffffffffffff1673ffffffffffffffffffffffffffffffffffffffff1681526020019081526020015f205484611c17565b90506113ce81611bc5565b506113d98186611c03565b50805f5f8773ffffffffffffffffffffffffffffffffffffffff1673ffffffffffffffffffffffffffffffffffffffff1681526020019081526020015f20819055505b5f73ffffffffffffffffffffffffffffffffffffffff168673ffffffffffffffffffffffffffffffffffffffff161461145b576114598387611c03565b505b5f73ffffffffffffffffffffffffffffffffffffffff168573ffffffffffffffffffffffffffffffffffffffff161461149a576114988386611c03565b505b6114a383611bc5565b50828573ffffffffffffffffffffffffffffffffffffffff168773ffffffffffffffffffffffffffffffffffffffff167f67500e8d0ed826d2194f514dd0d8124f35648ab6e3fb5e6ed867134cffe661e960405160405180910390a450509392505050565b5f5f8573ffffffffffffffffffffffffffffffffffffffff163b111561162e578473ffffffffffffffffffffffffffffffffffffffff166346083bfd88888787876040518663ffffffff1660e01b8152600401611569959493929190613094565b6020604051808303815f875af19250505080156115a457506040513d601f19601f820116820180604052508101906115a1919061310a565b60015b611625573d805f81146115d2576040519150601f19603f3d011682016040523d82523d5f602084013e6115d7565b606091505b505f81510361161d57856040517fdc8328da0000000000000000000000000000000000000000000000000000000081526004016116149190612e8d565b60405180910390fd5b805181602001fd5b8091505061163b565b6116386001611c5d565b90505b9695505050505050565b5f61165b8267ffffffffffffffff166005611c7f565b9050919050565b5f61166e848484611d32565b90509392505050565b5f61168183610f53565b6116915761168e5f611645565b92505b61169a82610f53565b6116aa576116a75f611645565b91505b6116b583835f611de8565b905092915050565b5f6116c6611b4c565b9050805f015f9054906101000a900473ffffffffffffffffffffffffffffffffffffffff1673ffffffffffffffffffffffffffffffffffffffff16633e395cec84846040518363ffffffff1660e01b8152600401611725929190613041565b5f604051808303815f87803b15801561173c575f5ffd5b505af115801561174e573d5f5f3e3d5ffd5b50505050505050565b5f5f611761611b4c565b9050805f015f9054906101000a900473ffffffffffffffffffffffffffffffffffffffff1673ffffffffffffffffffffffffffffffffffffffff166382027b6d85856040518363ffffffff1660e01b81526004016117c0929190613041565b602060405180830381865afa1580156117db573d5f5f3e3d5ffd5b505050506040513d601f19601f820116820180604052508101906117ff919061315f565b91505092915050565b60605f611813611eb9565b90505f816002015f8581526020019081526020015f208054905003611864576040517fd66ca67500000000000000000000000000000000000000000000000000000000815260040160405180910390fd5b806002015f8481526020019081526020015f208054806020026020016040519081016040528092919081815260200182805480156118bf57602002820191905f5260205f20905b8154815260200190600101908083116118ab575b5050505050915050919050565b5f5f602490505f6118dc85611ee0565b90505f8167ffffffffffffffff8111156118f9576118f86127d4565b5b6040519080825280601f01601f19166020018201604052801561192b5781602001600182028036833780820191505090505b509050818360208301375f61193e611b4c565b9050806002015f9054906101000a900473ffffffffffffffffffffffffffffffffffffffff1673ffffffffffffffffffffffffffffffffffffffff1663b009ec4c8884896040518463ffffffff1660e01b81526004016119a093929190613344565b6020604051808303815f875af11580156119bc573d5f5f3e3d5ffd5b505050506040513d601f19601f820116820180604052508101906119e0919061315f565b94505050505092915050565b5f5f6119f6611eb9565b9050806001015491505f611a08611b4c565b9050805f015f9054906101000a900473ffffffffffffffffffffffffffffffffffffffff1673ffffffffffffffffffffffffffffffffffffffff1663fadd2246876040518263ffffffff1660e01b8152600401611a65919061338e565b5f604051808303815f87803b158015611a7c575f5ffd5b505af1158015611a8e573d5f5f3e3d5ffd5b50505050815f015f9054906101000a900473ffffffffffffffffffffffffffffffffffffffff1673ffffffffffffffffffffffffffffffffffffffff16633263b83b858589896040518563ffffffff1660e01b8152600401611af2939291906133e8565b5f604051808303818588803b158015611b09575f5ffd5b505af1158015611b1b573d5f5f3e3d5ffd5b5050505050611b2a8387611fcd565b816001015f815480929190611b3e90613451565b919050555050509392505050565b5f7fed8d60e34876f751cc8b014c560745351147d9de11b9347c854e881b128ea600905090565b5f5f611b7e84610f53565b611b9657611b8c6001611c5d565b9150829050611bbe565b5f611ba18585611c17565b9050611bad8186612054565b9250611bba838287611662565b9150505b9250929050565b5f611bd0823061209a565b819050919050565b5f5f611be48484612054565b9150611bfa82611bf48686611677565b86611662565b90509250929050565b5f611c0e838361209a565b82905092915050565b5f611c2183610f53565b611c3157611c2e5f611645565b92505b611c3a82610f53565b611c4a57611c475f611645565b91505b611c5583835f612134565b905092915050565b5f611c7882611c6c575f611c6f565b60015b60ff165f611c7f565b9050919050565b5f5f611c89611b4c565b9050806001015f9054906101000a900473ffffffffffffffffffffffffffffffffffffffff1673ffffffffffffffffffffffffffffffffffffffff16639cd07acb85856040518363ffffffff1660e01b8152600401611ce9929190613498565b6020604051808303815f875af1158015611d05573d5f5f3e3d5ffd5b505050506040513d601f19601f82011682018060405250810190611d299190613016565b91505092915050565b5f5f611d3c611b4c565b9050806001015f9054906101000a900473ffffffffffffffffffffffffffffffffffffffff1673ffffffffffffffffffffffffffffffffffffffff16637702dcff8686866040518463ffffffff1660e01b8152600401611d9e939291906134bf565b6020604051808303815f875af1158015611dba573d5f5f3e3d5ffd5b505050506040513d601f19601f82011682018060405250810190611dde9190613016565b9150509392505050565b5f5f8215611dfc57600160f81b9050611e03565b5f60f81b90505b5f611e0c611b4c565b9050806001015f9054906101000a900473ffffffffffffffffffffffffffffffffffffffff1673ffffffffffffffffffffffffffffffffffffffff1663182b6d988787856040518463ffffffff1660e01b8152600401611e6e9392919061352e565b6020604051808303815f875af1158015611e8a573d5f5f3e3d5ffd5b505050506040513d601f19601f82011682018060405250810190611eae9190613016565b925050509392505050565b5f7f5ea69329017273582817d320489fbd94f775580e90c092699ca6f3d12fdf7d00905090565b5f5f825190505f5f5f90505b82811015611fb3575f858281518110611f0857611f07612e60565b5b6020026020010151601e60208110611f2357611f22612e60565b5b1a60f81b60f81c60ff166053811115611f3f57611f3e612f2f565b5b90506009816053811115611f5657611f55612f2f565b5b60ff161015611f7357602083611f6c9190613563565b9250611fa5565b6040517fce54a8d100000000000000000000000000000000000000000000000000000000815260040160405180910390fd5b508080600101915050611eec565b50602081611fc19190613563565b90508092505050919050565b5f611fd6611eb9565b90505f816002015f8581526020019081526020015f208054905014612027576040517f3f06d22b00000000000000000000000000000000000000000000000000000000815260040160405180910390fd5b81816002015f8581526020019081526020015f20908051906020019061204e9291906122d6565b50505050565b5f61205e83610f53565b61206e5761206b5f611645565b92505b61207782610f53565b612087576120845f611645565b91505b61209283835f612205565b905092915050565b5f6120a3611b4c565b9050805f015f9054906101000a900473ffffffffffffffffffffffffffffffffffffffff1673ffffffffffffffffffffffffffffffffffffffff1663b9496b6284846040518363ffffffff1660e01b8152600401612102929190613041565b5f604051808303815f87803b158015612119575f5ffd5b505af115801561212b573d5f5f3e3d5ffd5b50505050505050565b5f5f821561214857600160f81b905061214f565b5f60f81b90505b5f612158611b4c565b9050806001015f9054906101000a900473ffffffffffffffffffffffffffffffffffffffff1673ffffffffffffffffffffffffffffffffffffffff1663117b2f388787856040518463ffffffff1660e01b81526004016121ba9392919061352e565b6020604051808303815f875af11580156121d6573d5f5f3e3d5ffd5b505050506040513d601f19601f820116820180604052508101906121fa9190613016565b925050509392505050565b5f5f821561221957600160f81b9050612220565b5f60f81b90505b5f612229611b4c565b9050806001015f9054906101000a900473ffffffffffffffffffffffffffffffffffffffff1673ffffffffffffffffffffffffffffffffffffffff16631391547f8787856040518463ffffffff1660e01b815260040161228b9392919061352e565b6020604051808303815f875af11580156122a7573d5f5f3e3d5ffd5b505050506040513d601f19601f820116820180604052508101906122cb9190613016565b925050509392505050565b828054828255905f5260205f20908101928215612310579160200282015b8281111561230f5782518255916020019190600101906122f4565b5b50905061231d9190612321565b5090565b5b80821115612338575f815f905550600101612322565b5090565b5f81519050919050565b5f82825260208201905092915050565b8281835e5f83830152505050565b5f601f19601f8301169050919050565b5f61237e8261233c565b6123888185612346565b9350612398818560208601612356565b6123a181612364565b840191505092915050565b5f6020820190508181035f8301526123c48184612374565b905092915050565b5f604051905090565b5f5ffd5b5f5ffd5b5f73ffffffffffffffffffffffffffffffffffffffff82169050919050565b5f612406826123dd565b9050919050565b612416816123fc565b8114612420575f5ffd5b50565b5f813590506124318161240d565b92915050565b5f819050919050565b61244981612437565b8114612453575f5ffd5b50565b5f8135905061246481612440565b92915050565b5f5ffd5b5f5ffd5b5f5ffd5b5f5f83601f84011261248b5761248a61246a565b5b8235905067ffffffffffffffff8111156124a8576124a761246e565b5b6020830191508360018202830111156124c4576124c3612472565b5b9250929050565b5f5f5f5f606085870312156124e3576124e26123d5565b5b5f6124f087828801612423565b945050602061250187828801612456565b935050604085013567ffffffffffffffff811115612522576125216123d9565b5b61252e87828801612476565b925092505092959194509250565b5f61254682612437565b9050919050565b6125568161253c565b82525050565b5f60208201905061256f5f83018461254d565b92915050565b5f60ff82169050919050565b61258a81612575565b82525050565b5f6020820190506125a35f830184612581565b92915050565b5f602082840312156125be576125bd6123d5565b5b5f6125cb84828501612423565b91505092915050565b5f5f5f5f5f5f5f60a0888a0312156125ef576125ee6123d5565b5b5f6125fc8a828b01612423565b975050602061260d8a828b01612423565b965050604061261e8a828b01612456565b955050606088013567ffffffffffffffff81111561263f5761263e6123d9565b5b61264b8a828b01612476565b9450945050608088013567ffffffffffffffff81111561266e5761266d6123d9565b5b61267a8a828b01612476565b925092505092959891949750929550565b61269481612437565b811461269e575f5ffd5b50565b5f813590506126af8161268b565b92915050565b5f5f5f5f606085870312156126cd576126cc6123d5565b5b5f6126da87828801612423565b94505060206126eb878288016126a1565b935050604085013567ffffffffffffffff81111561270c5761270b6123d9565b5b61271887828801612476565b925092505092959194509250565b5f5f6040838503121561273c5761273b6123d5565b5b5f61274985828601612423565b925050602061275a858286016126a1565b9150509250929050565b5f819050919050565b61277681612764565b8114612780575f5ffd5b50565b5f813590506127918161276d565b92915050565b5f67ffffffffffffffff82169050919050565b6127b381612797565b81146127bd575f5ffd5b50565b5f813590506127ce816127aa565b92915050565b7f4e487b71000000000000000000000000000000000000000000000000000000005f52604160045260245ffd5b61280a82612364565b810181811067ffffffffffffffff82111715612829576128286127d4565b5b80604052505050565b5f61283b6123cc565b90506128478282612801565b919050565b5f67ffffffffffffffff821115612866576128656127d4565b5b602082029050602081019050919050565b5f5ffd5b5f67ffffffffffffffff821115612895576128946127d4565b5b61289e82612364565b9050602081019050919050565b828183375f83830152505050565b5f6128cb6128c68461287b565b612832565b9050828152602081018484840111156128e7576128e6612877565b5b6128f28482856128ab565b509392505050565b5f82601f83011261290e5761290d61246a565b5b813561291e8482602086016128b9565b91505092915050565b5f6129396129348461284c565b612832565b9050808382526020820190506020840283018581111561295c5761295b612472565b5b835b818110156129a357803567ffffffffffffffff8111156129815761298061246a565b5b80860161298e89826128fa565b8552602085019450505060208101905061295e565b5050509392505050565b5f82601f8301126129c1576129c061246a565b5b81356129d1848260208601612927565b91505092915050565b5f5f5f606084860312156129f1576129f06123d5565b5b5f6129fe86828701612783565b9350506020612a0f868287016127c0565b925050604084013567ffffffffffffffff811115612a3057612a2f6123d9565b5b612a3c868287016129ad565b9150509250925092565b5f5f60408385031215612a5c57612a5b6123d5565b5b5f612a6985828601612423565b9250506020612a7a85828601612423565b9150509250929050565b5f8115159050919050565b612a9881612a84565b82525050565b5f602082019050612ab15f830184612a8f565b92915050565b5f60208284031215612acc57612acb6123d5565b5b5f612ad9848285016126a1565b91505092915050565b5f5f5f5f5f60808688031215612afb57612afa6123d5565b5b5f612b0888828901612423565b9550506020612b1988828901612423565b9450506040612b2a888289016126a1565b935050606086013567ffffffffffffffff811115612b4b57612b4a6123d9565b5b612b5788828901612476565b92509250509295509295909350565b5f65ffffffffffff82169050919050565b612b8081612b66565b8114612b8a575f5ffd5b50565b5f81359050612b9b81612b77565b92915050565b5f5f60408385031215612bb757612bb66123d5565b5b5f612bc485828601612423565b9250506020612bd585828601612b8d565b9150509250929050565b5f5f5f5f5f5f60808789031215612bf957612bf86123d5565b5b5f612c0689828a01612423565b9650506020612c1789828a01612456565b955050604087013567ffffffffffffffff811115612c3857612c376123d9565b5b612c4489828a01612476565b9450945050606087013567ffffffffffffffff811115612c6757612c666123d9565b5b612c7389828a01612476565b92509250509295509295509295565b5f5f5f5f5f60808688031215612c9b57612c9a6123d5565b5b5f612ca888828901612423565b9550506020612cb988828901612423565b9450506040612cca88828901612456565b935050606086013567ffffffffffffffff811115612ceb57612cea6123d9565b5b612cf788828901612476565b92509250509295509295909350565b5f5f5f60608486031215612d1d57612d1c6123d5565b5b5f612d2a86828701612423565b9350506020612d3b86828701612423565b9250506040612d4c868287016126a1565b9150509250925092565b7f4e487b71000000000000000000000000000000000000000000000000000000005f52602260045260245ffd5b5f6002820490506001821680612d9a57607f821691505b602082108103612dad57612dac612d56565b5b50919050565b612dbc816123fc565b82525050565b5f604082019050612dd55f830185612db3565b612de26020830184612db3565b9392505050565b5f604082019050612dfc5f83018561254d565b612e096020830184612db3565b9392505050565b612e1981612764565b82525050565b5f602082019050612e325f830184612e10565b92915050565b612e4181612797565b82525050565b5f602082019050612e5a5f830184612e38565b92915050565b7f4e487b71000000000000000000000000000000000000000000000000000000005f52603260045260245ffd5b5f602082019050612ea05f830184612db3565b92915050565b612eaf81612b66565b82525050565b5f602082019050612ec85f830184612ea6565b92915050565b612ed781612437565b82525050565b5f81519050919050565b5f82825260208201905092915050565b5f612f0182612edd565b612f0b8185612ee7565b9350612f1b818560208601612356565b612f2481612364565b840191505092915050565b7f4e487b71000000000000000000000000000000000000000000000000000000005f52602160045260245ffd5b60548110612f6d57612f6c612f2f565b5b50565b5f819050612f7d82612f5c565b919050565b5f612f8c82612f70565b9050919050565b612f9c81612f82565b82525050565b5f608082019050612fb55f830187612ece565b612fc26020830186612db3565b8181036040830152612fd48185612ef7565b9050612fe36060830184612f93565b95945050505050565b612ff581612437565b8114612fff575f5ffd5b50565b5f8151905061301081612fec565b92915050565b5f6020828403121561302b5761302a6123d5565b5b5f61303884828501613002565b91505092915050565b5f6040820190506130545f830185612ece565b6130616020830184612db3565b9392505050565b5f6130738385612ee7565b93506130808385846128ab565b61308983612364565b840190509392505050565b5f6080820190506130a75f830188612db3565b6130b46020830187612db3565b6130c1604083018661254d565b81810360608301526130d4818486613068565b90509695505050505050565b6130e981612437565b81146130f3575f5ffd5b50565b5f81519050613104816130e0565b92915050565b5f6020828403121561311f5761311e6123d5565b5b5f61312c848285016130f6565b91505092915050565b61313e81612a84565b8114613148575f5ffd5b50565b5f8151905061315981613135565b92915050565b5f60208284031215613174576131736123d5565b5b5f6131818482850161314b565b91505092915050565b5f81519050919050565b5f82825260208201905092915050565b5f819050602082019050919050565b6131bc81612437565b82525050565b5f6131cd83836131b3565b60208301905092915050565b5f602082019050919050565b5f6131ef8261318a565b6131f98185613194565b9350613204836131a4565b805f5b8381101561323457815161321b88826131c2565b9750613226836131d9565b925050600181019050613207565b5085935050505092915050565b5f81519050919050565b5f82825260208201905092915050565b5f819050602082019050919050565b5f82825260208201905092915050565b5f61328482612edd565b61328e818561326a565b935061329e818560208601612356565b6132a781612364565b840191505092915050565b5f6132bd838361327a565b905092915050565b5f602082019050919050565b5f6132db82613241565b6132e5818561324b565b9350836020820285016132f78561325b565b805f5b85811015613332578484038952815161331385826132b2565b945061331e836132c5565b925060208a019950506001810190506132fa565b50829750879550505050505092915050565b5f6060820190508181035f83015261335c81866131e5565b905081810360208301526133708185612ef7565b9050818103604083015261338481846132d1565b9050949350505050565b5f6020820190508181035f8301526133a681846131e5565b905092915050565b5f7fffffffff0000000000000000000000000000000000000000000000000000000082169050919050565b6133e2816133ae565b82525050565b5f6060820190506133fb5f830186612e10565b818103602083015261340d81856131e5565b905061341c60408301846133d9565b949350505050565b7f4e487b71000000000000000000000000000000000000000000000000000000005f52601160045260245ffd5b5f61345b82612764565b91507fffffffffffffffffffffffffffffffffffffffffffffffffffffffffffffffff820361348d5761348c613424565b5b600182019050919050565b5f6040820190506134ab5f830185612e10565b6134b86020830184612f93565b9392505050565b5f6060820190506134d25f830186612ece565b6134df6020830185612ece565b6134ec6040830184612ece565b949350505050565b5f7fff0000000000000000000000000000000000000000000000000000000000000082169050919050565b613528816134f4565b82525050565b5f6060820190506135415f830186612ece565b61354e6020830185612ece565b61355b604083018461351f565b949350505050565b5f61356d82612764565b915061357883612764565b92508282019050808211156135905761358f613424565b5b9291505056fea264697066735822122021d8d2350de1ab8f52f8336e3aacedf7acb222700b0905b7db209a32d7bec83664736f6c634300081c0033",
  "linkReferences": {},
  "deployedLinkReferences": {},
  "immutableReferences": {},
  "inputSourceName": "project/contracts/MySecretToken.sol",
  "buildInfoId": "solc-0_8_28-1ba15310e2670ef00466c01e583c3eb85d7738f0"
}